{
  "_format": "hh-sol-artifact-1",
  "contractName": "DAO",
  "sourceName": "contracts/src/DAO.sol",
  "abi": [
    {
      "inputs": [],
      "stateMutability": "nonpayable",
      "type": "constructor"
    },
    {
      "anonymous": false,
      "inputs": [
        {
          "indexed": false,
          "internalType": "address",
          "name": "previousAdmin",
          "type": "address"
        },
        {
          "indexed": false,
          "internalType": "address",
          "name": "newAdmin",
          "type": "address"
        }
      ],
      "name": "AdminChanged",
      "type": "event"
    },
    {
      "anonymous": false,
      "inputs": [
        {
          "indexed": true,
          "internalType": "address",
          "name": "beacon",
          "type": "address"
        }
      ],
      "name": "BeaconUpgraded",
      "type": "event"
    },
    {
      "anonymous": false,
      "inputs": [
        {
          "indexed": true,
          "internalType": "bytes32",
          "name": "role",
          "type": "bytes32"
        },
        {
          "indexed": true,
          "internalType": "address",
          "name": "actor",
          "type": "address"
        },
        {
          "indexed": false,
          "internalType": "address",
          "name": "where",
          "type": "address"
        }
      ],
      "name": "Frozen",
      "type": "event"
    },
    {
      "anonymous": false,
      "inputs": [
        {
          "indexed": true,
          "internalType": "bytes32",
          "name": "role",
          "type": "bytes32"
        },
        {
          "indexed": true,
          "internalType": "address",
          "name": "actor",
          "type": "address"
        },
        {
          "indexed": true,
          "internalType": "address",
          "name": "who",
          "type": "address"
        },
        {
          "indexed": false,
          "internalType": "address",
          "name": "where",
          "type": "address"
        },
        {
          "indexed": false,
          "internalType": "contract IACLOracle",
          "name": "oracle",
          "type": "address"
        }
      ],
      "name": "Granted",
      "type": "event"
    },
    {
      "anonymous": false,
      "inputs": [
        {
          "components": [
            {
              "internalType": "string",
              "name": "processName",
              "type": "string"
            },
            {
              "components": [
                {
                  "internalType": "address",
                  "name": "to",
                  "type": "address"
                },
                {
                  "internalType": "uint256",
                  "name": "value",
                  "type": "uint256"
                },
                {
                  "internalType": "bytes",
                  "name": "data",
                  "type": "bytes"
                }
              ],
              "internalType": "struct Executor.Action[]",
              "name": "actions",
              "type": "tuple[]"
            },
            {
              "internalType": "bytes",
              "name": "metadata",
              "type": "bytes"
            },
            {
              "internalType": "bytes",
              "name": "additionalArguments",
              "type": "bytes"
            }
          ],
          "indexed": true,
          "internalType": "struct GovernancePrimitive.Proposal",
          "name": "proposal",
          "type": "tuple"
        },
        {
          "components": [
            {
              "internalType": "contract GovernancePrimitive",
              "name": "governancePrimitive",
              "type": "address"
            },
            {
              "components": [
                {
                  "internalType": "string",
                  "name": "start",
                  "type": "string"
                },
                {
                  "internalType": "string",
                  "name": "execute",
                  "type": "string"
                },
                {
                  "internalType": "string",
                  "name": "halt",
                  "type": "string"
                },
                {
                  "internalType": "string",
                  "name": "forward",
                  "type": "string"
                },
                {
                  "internalType": "string",
                  "name": "stop",
                  "type": "string"
                },
                {
                  "internalType": "string",
                  "name": "vote",
                  "type": "string"
                }
              ],
              "internalType": "struct Permissions.GovernancePrimitivePermissions",
              "name": "permissions",
              "type": "tuple"
            },
            {
              "components": [
                {
                  "internalType": "address",
                  "name": "to",
                  "type": "address"
                },
                {
                  "internalType": "bytes4[]",
                  "name": "methods",
                  "type": "bytes4[]"
                }
              ],
              "internalType": "struct Processes.AllowedActions[]",
              "name": "allowedActions",
              "type": "tuple[]"
            },
            {
              "internalType": "bytes",
              "name": "metadata",
              "type": "bytes"
            }
          ],
          "indexed": true,
          "internalType": "struct Processes.Process",
          "name": "process",
          "type": "tuple"
        },
        {
          "indexed": true,
          "internalType": "address",
          "name": "submitter",
          "type": "address"
        },
        {
          "indexed": false,
          "internalType": "uint256",
          "name": "executionId",
          "type": "uint256"
        }
      ],
      "name": "NewProposal",
      "type": "event"
    },
    {
      "anonymous": false,
      "inputs": [
        {
          "indexed": true,
          "internalType": "bytes32",
          "name": "role",
          "type": "bytes32"
        },
        {
          "indexed": true,
          "internalType": "address",
          "name": "actor",
          "type": "address"
        },
        {
          "indexed": true,
          "internalType": "address",
          "name": "who",
          "type": "address"
        },
        {
          "indexed": false,
          "internalType": "address",
          "name": "where",
          "type": "address"
        }
      ],
      "name": "Revoked",
      "type": "event"
    },
    {
      "anonymous": false,
      "inputs": [
        {
          "indexed": true,
          "internalType": "address",
          "name": "implementation",
          "type": "address"
        }
      ],
      "name": "Upgraded",
      "type": "event"
    },
    {
      "inputs": [],
      "name": "DAO_CONFIG_ROLE",
      "outputs": [
        {
          "internalType": "bytes32",
          "name": "",
          "type": "bytes32"
        }
      ],
      "stateMutability": "view",
      "type": "function"
    },
    {
      "inputs": [],
      "name": "ROOT_ROLE",
      "outputs": [
        {
          "internalType": "bytes32",
          "name": "",
          "type": "bytes32"
        }
      ],
      "stateMutability": "view",
      "type": "function"
    },
    {
      "inputs": [],
      "name": "UPGRADE_ROLE",
      "outputs": [
        {
          "internalType": "bytes32",
          "name": "",
          "type": "bytes32"
        }
      ],
      "stateMutability": "view",
      "type": "function"
    },
    {
      "inputs": [
        {
          "internalType": "string",
          "name": "role",
          "type": "string"
        },
        {
          "components": [
            {
              "internalType": "enum Permissions.Operator",
              "name": "operator",
              "type": "uint8"
            },
            {
              "internalType": "contract PermissionValidator[]",
              "name": "validators",
              "type": "address[]"
            },
            {
              "internalType": "bytes[]",
              "name": "data",
              "type": "bytes[]"
            }
          ],
          "internalType": "struct Permissions.Permission",
          "name": "permission",
          "type": "tuple"
        }
      ],
      "name": "addRole",
      "outputs": [],
      "stateMutability": "nonpayable",
      "type": "function"
    },
    {
      "inputs": [
        {
          "internalType": "address",
          "name": "_where",
          "type": "address"
        },
        {
          "components": [
            {
              "internalType": "enum ACLData.BulkOp",
              "name": "op",
              "type": "uint8"
            },
            {
              "internalType": "bytes4",
              "name": "role",
              "type": "bytes4"
            },
            {
              "internalType": "address",
              "name": "who",
              "type": "address"
            }
          ],
          "internalType": "struct ACLData.BulkItem[]",
          "name": "items",
          "type": "tuple[]"
        }
      ],
      "name": "bulk",
      "outputs": [],
      "stateMutability": "nonpayable",
      "type": "function"
    },
    {
      "inputs": [
        {
          "internalType": "uint256",
          "name": "executionID",
          "type": "uint256"
        },
        {
          "internalType": "contract GovernancePrimitive",
          "name": "governancePrimitive",
          "type": "address"
        }
      ],
      "name": "execute",
      "outputs": [],
      "stateMutability": "nonpayable",
      "type": "function"
    },
    {
      "inputs": [],
      "name": "executor",
      "outputs": [
        {
          "internalType": "contract Executor",
          "name": "",
          "type": "address"
        }
      ],
      "stateMutability": "view",
      "type": "function"
    },
    {
      "inputs": [
        {
          "internalType": "address",
          "name": "_where",
          "type": "address"
        },
        {
          "internalType": "bytes32",
          "name": "_role",
          "type": "bytes32"
        }
      ],
      "name": "freeze",
      "outputs": [],
      "stateMutability": "nonpayable",
      "type": "function"
    },
    {
      "inputs": [
        {
          "internalType": "address",
          "name": "_where",
          "type": "address"
        },
        {
          "internalType": "address",
          "name": "_who",
          "type": "address"
        },
        {
          "internalType": "bytes32",
          "name": "_role",
          "type": "bytes32"
        }
      ],
      "name": "grant",
      "outputs": [],
      "stateMutability": "nonpayable",
      "type": "function"
    },
    {
      "inputs": [
        {
          "internalType": "address",
          "name": "_where",
          "type": "address"
        },
        {
          "internalType": "address",
          "name": "_who",
          "type": "address"
        },
        {
          "internalType": "bytes32",
          "name": "_role",
          "type": "bytes32"
        },
        {
          "internalType": "contract IACLOracle",
          "name": "_oracle",
          "type": "address"
        }
      ],
      "name": "grantWithOracle",
      "outputs": [],
      "stateMutability": "nonpayable",
      "type": "function"
    },
    {
      "inputs": [
        {
          "internalType": "address",
          "name": "_where",
          "type": "address"
        },
        {
          "internalType": "address",
          "name": "_who",
          "type": "address"
        },
        {
          "internalType": "bytes32",
          "name": "_role",
          "type": "bytes32"
        }
      ],
      "name": "hasPermission",
      "outputs": [
        {
          "internalType": "bool",
          "name": "",
          "type": "bool"
        }
      ],
      "stateMutability": "nonpayable",
      "type": "function"
    },
    {
      "inputs": [
        {
          "internalType": "bytes",
          "name": "_metadata",
          "type": "bytes"
        },
        {
          "internalType": "contract Processes",
          "name": "_processes",
          "type": "address"
        },
        {
          "internalType": "contract Permissions",
          "name": "_permissions",
          "type": "address"
        },
        {
          "internalType": "contract Executor",
          "name": "_executor",
          "type": "address"
        },
        {
          "internalType": "address",
          "name": "_aclRoot",
          "type": "address"
        }
      ],
      "name": "initialize",
      "outputs": [],
      "stateMutability": "nonpayable",
      "type": "function"
    },
    {
      "inputs": [
        {
          "internalType": "contract DAO",
          "name": "_dao",
          "type": "address"
        }
      ],
      "name": "initialize",
      "outputs": [],
      "stateMutability": "nonpayable",
      "type": "function"
    },
    {
      "inputs": [
        {
          "internalType": "address",
          "name": "_where",
          "type": "address"
        },
        {
          "internalType": "bytes32",
          "name": "_role",
          "type": "bytes32"
        }
      ],
      "name": "isFrozen",
      "outputs": [
        {
          "internalType": "bool",
          "name": "",
          "type": "bool"
        }
      ],
      "stateMutability": "view",
      "type": "function"
    },
    {
      "inputs": [],
      "name": "metadata",
      "outputs": [
        {
          "internalType": "bytes",
          "name": "",
          "type": "bytes"
        }
      ],
      "stateMutability": "view",
      "type": "function"
    },
    {
      "inputs": [],
      "name": "permissions",
      "outputs": [
        {
          "internalType": "contract Permissions",
          "name": "",
          "type": "address"
        }
      ],
      "stateMutability": "view",
      "type": "function"
    },
    {
      "inputs": [],
      "name": "processes",
      "outputs": [
        {
          "internalType": "contract Processes",
          "name": "",
          "type": "address"
        }
      ],
      "stateMutability": "view",
      "type": "function"
    },
    {
      "inputs": [
        {
          "internalType": "address",
          "name": "_where",
          "type": "address"
        },
        {
          "internalType": "address",
          "name": "_who",
          "type": "address"
        },
        {
          "internalType": "bytes32",
          "name": "_role",
          "type": "bytes32"
        }
      ],
      "name": "revoke",
      "outputs": [],
      "stateMutability": "nonpayable",
      "type": "function"
    },
    {
      "inputs": [
        {
          "internalType": "contract Executor",
          "name": "_executor",
          "type": "address"
        }
      ],
      "name": "setExecutor",
      "outputs": [],
      "stateMutability": "nonpayable",
      "type": "function"
    },
    {
      "inputs": [
        {
          "internalType": "bytes",
          "name": "_metadata",
          "type": "bytes"
        }
      ],
      "name": "setMetadata",
      "outputs": [],
      "stateMutability": "nonpayable",
      "type": "function"
    },
    {
      "inputs": [
        {
          "internalType": "string",
          "name": "name",
          "type": "string"
        },
        {
          "components": [
            {
              "internalType": "contract GovernancePrimitive",
              "name": "governancePrimitive",
              "type": "address"
            },
            {
              "components": [
                {
                  "internalType": "string",
                  "name": "start",
                  "type": "string"
                },
                {
                  "internalType": "string",
                  "name": "execute",
                  "type": "string"
                },
                {
                  "internalType": "string",
                  "name": "halt",
                  "type": "string"
                },
                {
                  "internalType": "string",
                  "name": "forward",
                  "type": "string"
                },
                {
                  "internalType": "string",
                  "name": "stop",
                  "type": "string"
                },
                {
                  "internalType": "string",
                  "name": "vote",
                  "type": "string"
                }
              ],
              "internalType": "struct Permissions.GovernancePrimitivePermissions",
              "name": "permissions",
              "type": "tuple"
            },
            {
              "components": [
                {
                  "internalType": "address",
                  "name": "to",
                  "type": "address"
                },
                {
                  "internalType": "bytes4[]",
                  "name": "methods",
                  "type": "bytes4[]"
                }
              ],
              "internalType": "struct Processes.AllowedActions[]",
              "name": "allowedActions",
              "type": "tuple[]"
            },
            {
              "internalType": "bytes",
              "name": "metadata",
              "type": "bytes"
            }
          ],
          "internalType": "struct Processes.Process",
          "name": "process",
          "type": "tuple"
        }
      ],
      "name": "setProcess",
      "outputs": [],
      "stateMutability": "nonpayable",
      "type": "function"
    },
    {
      "inputs": [
        {
          "components": [
            {
              "internalType": "string",
              "name": "processName",
              "type": "string"
            },
            {
              "components": [
                {
                  "internalType": "address",
                  "name": "to",
                  "type": "address"
                },
                {
                  "internalType": "uint256",
                  "name": "value",
                  "type": "uint256"
                },
                {
                  "internalType": "bytes",
                  "name": "data",
                  "type": "bytes"
                }
              ],
              "internalType": "struct Executor.Action[]",
              "name": "actions",
              "type": "tuple[]"
            },
            {
              "internalType": "bytes",
              "name": "metadata",
              "type": "bytes"
            },
            {
              "internalType": "bytes",
              "name": "additionalArguments",
              "type": "bytes"
            }
          ],
          "internalType": "struct GovernancePrimitive.Proposal",
          "name": "proposal",
          "type": "tuple"
        }
      ],
      "name": "start",
      "outputs": [
        {
          "components": [
            {
              "internalType": "contract GovernancePrimitive",
              "name": "governancePrimitive",
              "type": "address"
            },
            {
              "components": [
                {
                  "internalType": "string",
                  "name": "start",
                  "type": "string"
                },
                {
                  "internalType": "string",
                  "name": "execute",
                  "type": "string"
                },
                {
                  "internalType": "string",
                  "name": "halt",
                  "type": "string"
                },
                {
                  "internalType": "string",
                  "name": "forward",
                  "type": "string"
                },
                {
                  "internalType": "string",
                  "name": "stop",
                  "type": "string"
                },
                {
                  "internalType": "string",
                  "name": "vote",
                  "type": "string"
                }
              ],
              "internalType": "struct Permissions.GovernancePrimitivePermissions",
              "name": "permissions",
              "type": "tuple"
            },
            {
              "components": [
                {
                  "internalType": "address",
                  "name": "to",
                  "type": "address"
                },
                {
                  "internalType": "bytes4[]",
                  "name": "methods",
                  "type": "bytes4[]"
                }
              ],
              "internalType": "struct Processes.AllowedActions[]",
              "name": "allowedActions",
              "type": "tuple[]"
            },
            {
              "internalType": "bytes",
              "name": "metadata",
              "type": "bytes"
            }
          ],
          "internalType": "struct Processes.Process",
          "name": "process",
          "type": "tuple"
        },
        {
          "internalType": "uint256",
          "name": "executionId",
          "type": "uint256"
        }
      ],
      "stateMutability": "nonpayable",
      "type": "function"
    },
    {
      "inputs": [
        {
          "internalType": "address",
          "name": "newImplementation",
          "type": "address"
        }
      ],
      "name": "upgradeTo",
      "outputs": [],
      "stateMutability": "nonpayable",
      "type": "function"
    },
    {
      "inputs": [
        {
          "internalType": "address",
          "name": "newImplementation",
          "type": "address"
        },
        {
          "internalType": "bytes",
          "name": "data",
          "type": "bytes"
        }
      ],
      "name": "upgradeToAndCall",
      "outputs": [],
      "stateMutability": "payable",
      "type": "function"
    }
  ],
  "bytecode": "0x60a06040523060601b6080523480156200001857600080fd5b50600054600160a81b900460ff16806200003c5750600054600160a01b900460ff16155b620000945760405162461bcd60e51b815260206004820152602e60248201526000805160206200381883398151915260448201526d191e481a5b9a5d1a585b1a5e995960921b60648201526084015b60405180910390fd5b600054600160a81b900460ff16158015620000bf576000805461ffff60a01b191661010160a01b1790555b8015620000d4576000805460ff60a81b191690555b50600054600160a81b900460ff1680620000f85750600054600160a01b900460ff16155b6200014c5760405162461bcd60e51b815260206004820152602e60248201526000805160206200381883398151915260448201526d191e481a5b9a5d1a585b1a5e995960921b60648201526084016200008b565b600054600160a81b900460ff1615801562000177576000805461ffff60a01b191661010160a01b1790555b80156200018c576000805460ff60a81b191690555b5060805160601c613657620001c160003960008181610a2101528181610ab701528181610e150152610eab01526136576000f3fe60806040526004361061018b5760003560e01c80637e8c7f08116100d6578063c34c08e51161007f578063d68bad2c11610059578063d68bad2c146104c1578063d96054c4146104e1578063ee57e36f1461050157600080fd5b8063c34c08e514610437578063c4d66de814610457578063ce43e4e0146104a157600080fd5b8063b6989ca3116100b0578063b6989ca3146103c3578063b908afa8146103e3578063c032dc301461041757600080fd5b80637e8c7f0814610350578063ab8c71c01461036b578063aedfd0b5146103a357600080fd5b806346b2057511610138578063628bb47811610112578063628bb478146102be5780636d6712d8146102ee57806375cbdae01461030e57600080fd5b806346b205751461026b5780634a12e2531461028b5780634f1ef286146102ab57600080fd5b80632c6f5f21116101695780632c6f5f21146101f25780633659cfe614610229578063392f37e91461024957600080fd5b806310ad3f1f146101905780631c3c0ea8146101b257806327da6af6146101d2575b600080fd5b34801561019c57600080fd5b506101b06101ab366004612802565b610521565b005b3480156101be57600080fd5b506101b06101cd36600461251d565b61068f565b3480156101de57600080fd5b506101b06101ed3660046125ce565b6107a3565b3480156101fe57600080fd5b5061021261020d366004612b03565b610964565b6040516102209291906130b4565b60405180910390f35b34801561023557600080fd5b506101b061024436600461251d565b610a16565b34801561025557600080fd5b5061025e610bb4565b6040516102209190612e1d565b34801561027757600080fd5b506101b0610286366004612872565b610c42565b34801561029757600080fd5b506101b06102a6366004612656565b610d72565b6101b06102b9366004612682565b610e0a565b3480156102ca57600080fd5b506102de6102d9366004612656565b610f99565b6040519015158152602001610220565b3480156102fa57600080fd5b506102de61030936600461253a565b611015565b34801561031a57600080fd5b506103427f466230b035c70053998e360e86a09ba59f811196ebb74997ff428492b8ca150b81565b604051908152602001610220565b34801561035c57600080fd5b50610342636223714d60e01b81565b34801561037757600080fd5b5060055461038b906001600160a01b031681565b6040516001600160a01b039091168152602001610220565b3480156103af57600080fd5b5060045461038b906001600160a01b031681565b3480156103cf57600080fd5b506101b06103de366004612774565b61103c565b3480156103ef57600080fd5b506103427f88aa719609f728b0c5e7fb8dd3608d5c25d497efbb3b9dd64e9251ebba10150881565b34801561042357600080fd5b506101b0610432366004612b38565b6111ce565b34801561044357600080fd5b5060065461038b906001600160a01b031681565b34801561046357600080fd5b506101b061047236600461251d565b6000805473ffffffffffffffffffffffffffffffffffffffff19166001600160a01b0392909216919091179055565b3480156104ad57600080fd5b506101b06104bc36600461257b565b61123d565b3480156104cd57600080fd5b506101b06104dc36600461253a565b6112d1565b3480156104ed57600080fd5b506101b06104fc36600461253a565b61136b565b34801561050d57600080fd5b506101b061051c366004612732565b6113fe565b600054604051630dace25b60e31b81523060048201523360248201527f466230b035c70053998e360e86a09ba59f811196ebb74997ff428492b8ca150b60448201819052916001600160a01b031690636d6712d890606401602060405180830381600087803b15801561059357600080fd5b505af11580156105a7573d6000803e3d6000fd5b505050506040513d601f19601f820116820180604052508101906105cb9190612710565b61060a5760405162461bcd60e51b815260206004820152600b60248201526a617574683a20636865636b60a81b60448201526064015b60405180910390fd5b6005546040517fa4e479f50000000000000000000000000000000000000000000000000000000081526001600160a01b039091169063a4e479f59061065790879087908790600401612e30565b600060405180830381600087803b15801561067157600080fd5b505af1158015610685573d6000803e3d6000fd5b5050505050505050565b600054604051630dace25b60e31b81523060048201523360248201527f466230b035c70053998e360e86a09ba59f811196ebb74997ff428492b8ca150b60448201819052916001600160a01b031690636d6712d890606401602060405180830381600087803b15801561070157600080fd5b505af1158015610715573d6000803e3d6000fd5b505050506040513d601f19601f820116820180604052508101906107399190612710565b6107735760405162461bcd60e51b815260206004820152600b60248201526a617574683a20636865636b60a81b6044820152606401610601565b506006805473ffffffffffffffffffffffffffffffffffffffff19166001600160a01b0392909216919091179055565b60408051602036601f81018290048202830182019093528282528592636223714d60e01b926107f3928592339286929091600091819084018382808284376000920191909152506114ee92505050565b61082b5760405162461bcd60e51b81526020600482015260096024820152680c2c6d87440c2eae8d60bb1b6044820152606401610601565b60005b8381101561095c57600085858381811061084a5761084a61358b565b90506060020180360381019061086091906128db565b905060008151600281111561087757610877613575565b14156108b4576108af87826040015183602001517bffffffffffffffffffffffffffffffffffffffffffffffffffffffff1916611539565b610949565b6001815160028111156108c9576108c9613575565b1415610901576108af87826040015183602001517bffffffffffffffffffffffffffffffffffffffffffffffffffffffff191661154b565b60028151600281111561091657610916613575565b1415610949576109498782602001517bffffffffffffffffffffffffffffffffffffffffffffffffffffffff19166116f0565b50806109548161352e565b91505061082e565b505050505050565b61096c61222d565b600480546040517f2c6f5f210000000000000000000000000000000000000000000000000000000081526000926001600160a01b0390921691632c6f5f21916109b79187910161320e565b600060405180830381600087803b1580156109d157600080fd5b505af11580156109e5573d6000803e3d6000fd5b505050506040513d6000823e601f3d908101601f19168201604052610a0d9190810190612951565b91509150915091565b306001600160a01b037f0000000000000000000000000000000000000000000000000000000000000000161415610ab55760405162461bcd60e51b815260206004820152602c60248201527f46756e6374696f6e206d7573742062652063616c6c6564207468726f7567682060448201527f64656c656761746563616c6c00000000000000000000000000000000000000006064820152608401610601565b7f00000000000000000000000000000000000000000000000000000000000000006001600160a01b0316610b107f360894a13ba1a3210667c828492db98dca3e2076cc3735a920a3ca505d382bbc546001600160a01b031690565b6001600160a01b031614610b8c5760405162461bcd60e51b815260206004820152602c60248201527f46756e6374696f6e206d7573742062652063616c6c6564207468726f7567682060448201527f6163746976652070726f787900000000000000000000000000000000000000006064820152608401610601565b610b95816118bd565b60408051600080825260208201909252610bb1918391906119a1565b50565b60038054610bc1906134f9565b80601f0160208091040260200160405190810160405280929190818152602001828054610bed906134f9565b8015610c3a5780601f10610c0f57610100808354040283529160200191610c3a565b820191906000526020600020905b815481529060010190602001808311610c1d57829003601f168201915b505050505081565b600054604051630dace25b60e31b81523060048201523360248201527f466230b035c70053998e360e86a09ba59f811196ebb74997ff428492b8ca150b60448201819052916001600160a01b031690636d6712d890606401602060405180830381600087803b158015610cb457600080fd5b505af1158015610cc8573d6000803e3d6000fd5b505050506040513d601f19601f82011682018060405250810190610cec9190612710565b610d265760405162461bcd60e51b815260206004820152600b60248201526a617574683a20636865636b60a81b6044820152606401610601565b600480546040517f46b205750000000000000000000000000000000000000000000000000000000081526001600160a01b03909116916346b20575916106579188918891889101612ee4565b60408051602036601f81018290048202830182019093528282528492636223714d60e01b92610dc2928592339286929091600091819084018382808284376000920191909152506114ee92505050565b610dfa5760405162461bcd60e51b81526020600482015260096024820152680c2c6d87440c2eae8d60bb1b6044820152606401610601565b610e0484846116f0565b50505050565b306001600160a01b037f0000000000000000000000000000000000000000000000000000000000000000161415610ea95760405162461bcd60e51b815260206004820152602c60248201527f46756e6374696f6e206d7573742062652063616c6c6564207468726f7567682060448201527f64656c656761746563616c6c00000000000000000000000000000000000000006064820152608401610601565b7f00000000000000000000000000000000000000000000000000000000000000006001600160a01b0316610f047f360894a13ba1a3210667c828492db98dca3e2076cc3735a920a3ca505d382bbc546001600160a01b031690565b6001600160a01b031614610f805760405162461bcd60e51b815260206004820152602c60248201527f46756e6374696f6e206d7573742062652063616c6c6564207468726f7567682060448201527f6163746976652070726f787900000000000000000000000000000000000000006064820152608401610601565b610f89826118bd565b610f95828260016119a1565b5050565b600060026000610ffa858560405165465245455a4560d01b60208201526bffffffffffffffffffffffff19606084901b166026820152603a8101829052600090605a0160405160208183030381529060405280519060200120905092915050565b815260208101919091526040016000205460ff169392505050565b6000611032848484604051806020016040528060008152506114ee565b90505b9392505050565b600054600160a81b900460ff168061106f575060005474010000000000000000000000000000000000000000900460ff16155b6110e15760405162461bcd60e51b815260206004820152602e60248201527f496e697469616c697a61626c653a20636f6e747261637420697320616c72656160448201527f647920696e697469616c697a65640000000000000000000000000000000000006064820152608401610601565b600054600160a81b900460ff1615801561113657600080547fffffffffffffffffffff0000ffffffffffffffffffffffffffffffffffffffff1675010100000000000000000000000000000000000000001790555b61114260038888612295565b50600480546001600160a01b0380881673ffffffffffffffffffffffffffffffffffffffff199283161790925560058054878416908316179055600680549286169290911691909117905561119682611b5e565b80156111c557600080547fffffffffffffffffffff00ffffffffffffffffffffffffffffffffffffffffff1690555b50505050505050565b6040517ffe0d94c1000000000000000000000000000000000000000000000000000000008152600481018390526001600160a01b0382169063fe0d94c190602401600060405180830381600087803b15801561122957600080fd5b505af115801561095c573d6000803e3d6000fd5b60408051602036601f81018290048202830182019093528282528692636223714d60e01b9261128d928592339286929091600091819084018382808284376000920191909152506114ee92505050565b6112c55760405162461bcd60e51b81526020600482015260096024820152680c2c6d87440c2eae8d60bb1b6044820152606401610601565b61095c86868686611c94565b60408051602036601f81018290048202830182019093528282528592636223714d60e01b92611321928592339286929091600091819084018382808284376000920191909152506114ee92505050565b6113595760405162461bcd60e51b81526020600482015260096024820152680c2c6d87440c2eae8d60bb1b6044820152606401610601565b611364858585611539565b5050505050565b60408051602036601f81018290048202830182019093528282528592636223714d60e01b926113bb928592339286929091600091819084018382808284376000920191909152506114ee92505050565b6113f35760405162461bcd60e51b81526020600482015260096024820152680c2c6d87440c2eae8d60bb1b6044820152606401610601565b61136485858561154b565b600054604051630dace25b60e31b81523060048201523360248201527f466230b035c70053998e360e86a09ba59f811196ebb74997ff428492b8ca150b60448201819052916001600160a01b031690636d6712d890606401602060405180830381600087803b15801561147057600080fd5b505af1158015611484573d6000803e3d6000fd5b505050506040513d601f19601f820116820180604052508101906114a89190612710565b6114e25760405162461bcd60e51b815260206004820152600b60248201526a617574683a20636865636b60a81b6044820152606401610601565b610e0460038484612295565b60006114fc85858585611e46565b806115155750611515856001600160a01b038585611e46565b8061152e575061152e6001600160a01b03858585611e46565b90505b949350505050565b6115468383836002611c94565b505050565b6115558382610f99565b156115a25760405162461bcd60e51b815260206004820152600b60248201527f61636c3a2066726f7a656e0000000000000000000000000000000000000000006044820152606401610601565b604080517f5045524d495353494f4e000000000000000000000000000000000000000000006020808301919091526bffffffffffffffffffffffff19606086811b8216602a85015287901b16603e830152605280830185905283518084039091018152607290920190925280519101206000906000818152600160205260409020549091506001600160a01b031661167c5760405162461bcd60e51b815260206004820152601960248201527f61636c3a20726f6c6520616c7265616479207265766f6b6564000000000000006044820152606401610601565b600081815260016020908152604091829020805473ffffffffffffffffffffffffffffffffffffffff1916905590516001600160a01b038681168252851691339185917f3ca48185ec3f6e47e24db18b13f1c65b1ce05da1659f9c1c4fe717dda5f67524910160405180910390a450505050565b6116fa8282610f99565b156117475760405162461bcd60e51b815260206004820152600b60248201527f61636c3a2066726f7a656e0000000000000000000000000000000000000000006044820152606401610601565b6040805165465245455a4560d01b6020808301919091526bffffffffffffffffffffffff19606086901b166026830152603a80830185905283518084039091018152605a9092018352815191810191909120600081815260029092529190205460ff16156117f75760405162461bcd60e51b815260206004820152601860248201527f61636c3a20726f6c6520616c726561647920667265657a6500000000000000006044820152606401610601565b600160026000611858868660405165465245455a4560d01b60208201526bffffffffffffffffffffffff19606084901b166026820152603a8101829052600090605a0160405160208183030381529060405280519060200120905092915050565b81526020808201929092526040908101600020805460ff19169315159390931790925590516001600160a01b0385168152339184917f5bc82808e00f308181e1f2385733b7e64006e784fbe7ed607e74c16580eb6d88910160405180910390a3505050565b600054604051630dace25b60e31b81523060048201523360248201527f88aa719609f728b0c5e7fb8dd3608d5c25d497efbb3b9dd64e9251ebba10150860448201819052916001600160a01b031690636d6712d890606401602060405180830381600087803b15801561192f57600080fd5b505af1158015611943573d6000803e3d6000fd5b505050506040513d601f19601f820116820180604052508101906119679190612710565b610f955760405162461bcd60e51b815260206004820152600b60248201526a617574683a20636865636b60a81b6044820152606401610601565b60006119d47f360894a13ba1a3210667c828492db98dca3e2076cc3735a920a3ca505d382bbc546001600160a01b031690565b90506119df84611fd0565b6000835111806119ec5750815b156119fd576119fb8484612092565b505b7f4910fdfa16fed3260ed0e7147f7cc6da11a60208b5b9406d12a635614ffd9143805460ff1661136457805460ff191660011781556040516001600160a01b0383166024820152611aaa90869060440160408051601f198184030181529190526020810180517bffffffffffffffffffffffffffffffffffffffffffffffffffffffff167f3659cfe600000000000000000000000000000000000000000000000000000000179052612092565b50805460ff191681557f360894a13ba1a3210667c828492db98dca3e2076cc3735a920a3ca505d382bbc546001600160a01b03838116911614611b555760405162461bcd60e51b815260206004820152602f60248201527f45524331393637557067726164653a207570677261646520627265616b73206660448201527f75727468657220757067726164657300000000000000000000000000000000006064820152608401610601565b611364856120b7565b600054600160a81b900460ff1680611b91575060005474010000000000000000000000000000000000000000900460ff16155b611c035760405162461bcd60e51b815260206004820152602e60248201527f496e697469616c697a61626c653a20636f6e747261637420697320616c72656160448201527f647920696e697469616c697a65640000000000000000000000000000000000006064820152608401610601565b600054600160a81b900460ff16158015611c5857600080547fffffffffffffffffffff0000ffffffffffffffffffffffffffffffffffffffff1675010100000000000000000000000000000000000000001790555b611c6230836120f7565b8015610f9557600080547fffffffffffffffffffff00ffffffffffffffffffffffffffffffffffffffffff1690555050565b611c9e8483610f99565b15611ceb5760405162461bcd60e51b815260206004820152600b60248201527f61636c3a2066726f7a656e0000000000000000000000000000000000000000006044820152606401610601565b604080517f5045524d495353494f4e000000000000000000000000000000000000000000006020808301919091526bffffffffffffffffffffffff19606087811b8216602a85015288901b16603e830152605280830186905283518084039091018152607290920190925280519101206000906000818152600160205260409020549091506001600160a01b031615611dc65760405162461bcd60e51b815260206004820152601960248201527f61636c3a20726f6c6520616c7265616479206772616e746564000000000000006044820152606401610601565b600081815260016020908152604091829020805473ffffffffffffffffffffffffffffffffffffffff19166001600160a01b038681169182179092558351898316815292830152861691339186917f0f579ad49235a8c1fd9041427e7067b1eb10926bbed380bf6fabc73e0e807644910160405180910390a45050505050565b60008060016000611ecb8888886040517f5045524d495353494f4e0000000000000000000000000000000000000000000060208201526bffffffffffffffffffffffff19606084811b8216602a84015285901b16603e820152605281018290526000906072016040516020818303038152906040528051906020012090509392505050565b81526020810191909152604001600020546001600160a01b031690508015611ef7576000915050611531565b6001600160a01b03811660021415611f13576001915050611531565b6040517f013827a30000000000000000000000000000000000000000000000000000000081526001600160a01b0382169063013827a390611f5e908990899089908990600401612deb565b602060405180830381600087803b158015611f7857600080fd5b505af1925050508015611fa8575060408051601f3d908101601f19168201909252611fa591810190612710565b60015b611fb157611fc4565b8015611fc257600192505050611531565b505b50600095945050505050565b803b6120445760405162461bcd60e51b815260206004820152602d60248201527f455243313936373a206e657720696d706c656d656e746174696f6e206973206e60448201527f6f74206120636f6e7472616374000000000000000000000000000000000000006064820152608401610601565b7f360894a13ba1a3210667c828492db98dca3e2076cc3735a920a3ca505d382bbc805473ffffffffffffffffffffffffffffffffffffffff19166001600160a01b0392909216919091179055565b606061103583836040518060600160405280602781526020016135fb60279139612109565b6120c081611fd0565b6040516001600160a01b038216907fbc7cd75a20ee27fd9adebab32041f755214dbc6bffa90cc0225b39da2e5c2d3b90600090a250565b610f958282636223714d60e01b611539565b6060833b61217f5760405162461bcd60e51b815260206004820152602660248201527f416464726573733a2064656c65676174652063616c6c20746f206e6f6e2d636f60448201527f6e747261637400000000000000000000000000000000000000000000000000006064820152608401610601565b600080856001600160a01b03168560405161219a9190612dcf565b600060405180830381855af49150503d80600081146121d5576040519150601f19603f3d011682016040523d82523d6000602084013e6121da565b606091505b50915091506121ea8282866121f4565b9695505050505050565b60608315612203575081611035565b8251156122135782518084602001fd5b8160405162461bcd60e51b81526004016106019190612e1d565b604051806080016040528060006001600160a01b031681526020016122816040518060c001604052806060815260200160608152602001606081526020016060815260200160608152602001606081525090565b815260200160608152602001606081525090565b8280546122a1906134f9565b90600052602060002090601f0160209004810192826122c35760008555612309565b82601f106122dc5782800160ff19823516178555612309565b82800160010185558215612309579182015b828111156123095782358255916020019190600101906122ee565b50612315929150612319565b5090565b5b80821115612315576000815560010161231a565b600082601f83011261233f57600080fd5b8151602061235461234f836133f2565b6133c1565b80838252828201915082860187848660051b890101111561237457600080fd5b60005b8581101561246a57815167ffffffffffffffff8082111561239757600080fd5b818a019150604080601f19848e030112156123b157600080fd5b6123b9613352565b888401516123c6816135b7565b815283820151838111156123d957600080fd5b8085019450508c603f8501126123ee57600080fd5b88840151925061240061234f846133f2565b808482528a820191508386018f858760051b890101111561242057600080fd5b600096505b8587101561244f578051945061243a856135cc565b84835260019690960195918b01918b01612425565b50828b01525087525050509284019290840190600101612377565b5090979650505050505050565b60008083601f84011261248957600080fd5b50813567ffffffffffffffff8111156124a157600080fd5b6020830191508360208285010111156124b957600080fd5b9250929050565b600082601f8301126124d157600080fd5b81516124df61234f82613416565b8181528460208386010111156124f457600080fd5b6115318260208301602087016134cd565b60006080828403121561251757600080fd5b50919050565b60006020828403121561252f57600080fd5b8135611035816135b7565b60008060006060848603121561254f57600080fd5b833561255a816135b7565b9250602084013561256a816135b7565b929592945050506040919091013590565b6000806000806080858703121561259157600080fd5b843561259c816135b7565b935060208501356125ac816135b7565b92506040850135915060608501356125c3816135b7565b939692955090935050565b6000806000604084860312156125e357600080fd5b83356125ee816135b7565b9250602084013567ffffffffffffffff8082111561260b57600080fd5b818601915086601f83011261261f57600080fd5b81358181111561262e57600080fd5b87602060608302850101111561264357600080fd5b6020830194508093505050509250925092565b6000806040838503121561266957600080fd5b8235612674816135b7565b946020939093013593505050565b6000806040838503121561269557600080fd5b82356126a0816135b7565b9150602083013567ffffffffffffffff8111156126bc57600080fd5b8301601f810185136126cd57600080fd5b80356126db61234f82613416565b8181528660208385010111156126f057600080fd5b816020840160208301376000602083830101528093505050509250929050565b60006020828403121561272257600080fd5b8151801515811461103557600080fd5b6000806020838503121561274557600080fd5b823567ffffffffffffffff81111561275c57600080fd5b61276885828601612477565b90969095509350505050565b60008060008060008060a0878903121561278d57600080fd5b863567ffffffffffffffff8111156127a457600080fd5b6127b089828a01612477565b90975095505060208701356127c4816135b7565b935060408701356127d4816135b7565b925060608701356127e4816135b7565b915060808701356127f4816135b7565b809150509295509295509295565b60008060006040848603121561281757600080fd5b833567ffffffffffffffff8082111561282f57600080fd5b61283b87838801612477565b9095509350602086013591508082111561285457600080fd5b5084016060818703121561286757600080fd5b809150509250925092565b60008060006040848603121561288757600080fd5b833567ffffffffffffffff8082111561289f57600080fd5b6128ab87838801612477565b909550935060208601359150808211156128c457600080fd5b506128d186828701612505565b9150509250925092565b6000606082840312156128ed57600080fd5b6040516060810181811067ffffffffffffffff82111715612910576129106135a1565b60405282356003811061292257600080fd5b81526020830135612932816135cc565b60208201526040830135612945816135b7565b60408201529392505050565b6000806040838503121561296457600080fd5b825167ffffffffffffffff8082111561297c57600080fd5b908401906080828703121561299057600080fd5b61299861337b565b82516129a3816135b7565b81526020830151828111156129b757600080fd5b830160c081890312156129c957600080fd5b6129d161339e565b8151848111156129e057600080fd5b6129ec8a8285016124c0565b825250602082015184811115612a0157600080fd5b612a0d8a8285016124c0565b602083015250604082015184811115612a2557600080fd5b612a318a8285016124c0565b604083015250606082015184811115612a4957600080fd5b612a558a8285016124c0565b606083015250608082015184811115612a6d57600080fd5b612a798a8285016124c0565b60808301525060a082015184811115612a9157600080fd5b612a9d8a8285016124c0565b60a083015250602083015250604083015182811115612abb57600080fd5b612ac78882860161232e565b604083015250606083015182811115612adf57600080fd5b612aeb888286016124c0565b60608301525060209590950151949694955050505050565b600060208284031215612b1557600080fd5b813567ffffffffffffffff811115612b2c57600080fd5b61153184828501612505565b60008060408385031215612b4b57600080fd5b823591506020830135612b5d816135b7565b809150509250929050565b81835260006020808501808196508560051b810191508460005b87811015612bb8578284038952612b998288613487565b612ba4868284612d78565b9a87019a9550505090840190600101612b82565b5091979650505050505050565b81835260006020808501808196508560051b810191508460005b87811015612bb857828403895281357fffffffffffffffffffffffffffffffffffffffffffffffffffffffffffffffc1883603018112612c1e57600080fd5b870160408581018235612c30816135b7565b6001600160a01b03168752612c478389018461343e565b888a019390935290829052909150606086019060005b83811015612ca4578135612c70816135cc565b7fffffffff000000000000000000000000000000000000000000000000000000001683529188019190880190600101612c5d565b50509986019994505090840190600101612bdf565b600081518084526020808501808196508360051b810191508286016000805b86811015612d6a578385038a52825180516001600160a01b031686528601516040878701819052815190870181905290870190606087019084905b80821015612d555783517fffffffff00000000000000000000000000000000000000000000000000000000168352928901929189019160019190910190612d13565b50509a87019a95505091850191600101612cd8565b509298975050505050505050565b818352818160208501375060006020828401015260006020601f19601f840116840101905092915050565b60008151808452612dbb8160208601602086016134cd565b601f01601f19169290920160200192915050565b60008251612de18184602087016134cd565b9190910192915050565b60006001600160a01b038087168352808616602084015250836040830152608060608301526121ea6080830184612da3565b6020815260006110356020830184612da3565b604081526000612e44604083018587612d78565b60208382038185015260608201853560048110612e6057600080fd5b8352612e6e8683018761343e565b6060858501529182905290600090608085015b81831015612eb1578335612e94816135b7565b6001600160a01b0316815292840192600192909201918401612e81565b612ebe60408a018a61343e565b955093508581036040870152612ed5818686612b68565b9b9a5050505050505050505050565b604081526000612ef8604083018587612d78565b82810360208401528335612f0b816135b7565b6001600160a01b031681526020840135368590037fffffffffffffffffffffffffffffffffffffffffffffffffffffffffffffff41018112612f4c57600080fd5b608060208301528401612f5f8180613487565b60c06080850152612f7561014085018284612d78565b915050612f856020830183613487565b7fffffffffffffffffffffffffffffffffffffffffffffffffffffffffffffff80808685030160a0870152612fbb848385612d78565b9350612fca6040860186613487565b93509150808685030160c0870152612fe3848484612d78565b9350612ff26060860186613487565b93509150808685030160e087015261300b848484612d78565b935061301a6080860186613487565b935091508086850301610100870152613034848484612d78565b935061304360a0860186613487565b955092508086850301610120870152505061305f828483612d78565b92505050613070604086018661343e565b8383036040850152613083838284612bc5565b925050506130946060860186613487565b83830360608501526130a7838284612d78565b9998505050505050505050565b604081526001600160a01b0383511660408201526000602084015160806060840152805160c0808501526130ec610180850182612da3565b905060208201517fffffffffffffffffffffffffffffffffffffffffffffffffffffffffffffff40808684030160e08701526131288383612da3565b92506040840151915080868403016101008701526131468383612da3565b92506060840151915080868403016101208701526131648383612da3565b92506080840151915080868403016101408701526131828383612da3565b925060a08401519350808684030161016087015250506131a28183612da3565b91505060408501517fffffffffffffffffffffffffffffffffffffffffffffffffffffffffffffffc0808584030160808601526131df8383612cb9565b925060608701519150808584030160a0860152506131fd8282612da3565b925050508260208301529392505050565b6000602080835261321f8485613487565b60808386015261323360a086018284612d78565b9150506132428286018661343e565b601f196040818886030181890152848386528686019050868460051b870101856000805b878110156132fd57868a850301855282357fffffffffffffffffffffffffffffffffffffffffffffffffffffffffffffffa18a36030181126132a6578283fd5b8901606081356132b5816135b7565b6001600160a01b03168652818d01358d8701526132d488830183613487565b925081898801526132e88288018483612d78565b978e019796505050928b019250600101613266565b50505061330c838c018c613487565b98509650838a82030160608b0152613325818989612d78565b97505050506133376060890189613487565b945092508087860301608088015250506121ea838383612d78565b6040805190810167ffffffffffffffff81118282101715613375576133756135a1565b60405290565b6040516080810167ffffffffffffffff81118282101715613375576133756135a1565b60405160c0810167ffffffffffffffff81118282101715613375576133756135a1565b604051601f8201601f1916810167ffffffffffffffff811182821017156133ea576133ea6135a1565b604052919050565b600067ffffffffffffffff82111561340c5761340c6135a1565b5060051b60200190565b600067ffffffffffffffff821115613430576134306135a1565b50601f01601f191660200190565b6000808335601e1984360301811261345557600080fd5b830160208101925035905067ffffffffffffffff81111561347557600080fd5b8060051b36038313156124b957600080fd5b6000808335601e1984360301811261349e57600080fd5b830160208101925035905067ffffffffffffffff8111156134be57600080fd5b8036038313156124b957600080fd5b60005b838110156134e85781810151838201526020016134d0565b83811115610e045750506000910152565b600181811c9082168061350d57607f821691505b6020821081141561251757634e487b7160e01b600052602260045260246000fd5b60007fffffffffffffffffffffffffffffffffffffffffffffffffffffffffffffffff82141561356e57634e487b7160e01b600052601160045260246000fd5b5060010190565b634e487b7160e01b600052602160045260246000fd5b634e487b7160e01b600052603260045260246000fd5b634e487b7160e01b600052604160045260246000fd5b6001600160a01b0381168114610bb157600080fd5b7fffffffff0000000000000000000000000000000000000000000000000000000081168114610bb157600080fdfe416464726573733a206c6f772d6c6576656c2064656c65676174652063616c6c206661696c6564a26469706673582212201a5cfcf4d43fd0ea8f44138f9d3f0d15ba65af9a697e5f6e9cd9aa00bdf7cddd64736f6c63430008060033496e697469616c697a61626c653a20636f6e747261637420697320616c726561",
  "linkReferences": {},
  "deployedLinkReferences": {}
}