{
  "_format": "hh-sol-artifact-1",
  "contractName": "Permissions",
  "sourceName": "contracts/src/permissions/Permissions.sol",
  "abi": [
    {
      "inputs": [],
      "stateMutability": "nonpayable",
      "type": "constructor"
    },
    {
      "anonymous": false,
      "inputs": [
        {
          "indexed": false,
          "internalType": "address",
          "name": "previousAdmin",
          "type": "address"
        },
        {
          "indexed": false,
          "internalType": "address",
          "name": "newAdmin",
          "type": "address"
        }
      ],
      "name": "AdminChanged",
      "type": "event"
    },
    {
      "anonymous": false,
      "inputs": [
        {
          "indexed": true,
          "internalType": "address",
          "name": "beacon",
          "type": "address"
        }
      ],
      "name": "BeaconUpgraded",
      "type": "event"
    },
    {
      "anonymous": false,
      "inputs": [
        {
          "indexed": true,
          "internalType": "string",
          "name": "role",
          "type": "string"
        },
        {
          "components": [
            {
              "internalType": "enum Permissions.Operator",
              "name": "operator",
              "type": "uint8"
            },
            {
              "internalType": "contract PermissionValidator[]",
              "name": "validators",
              "type": "address[]"
            },
            {
              "internalType": "bytes[]",
              "name": "data",
              "type": "bytes[]"
            }
          ],
          "indexed": true,
          "internalType": "struct Permissions.Permission",
          "name": "permission",
          "type": "tuple"
        }
      ],
      "name": "NewRoleAdded",
      "type": "event"
    },
    {
      "anonymous": false,
      "inputs": [
        {
          "indexed": true,
          "internalType": "address",
          "name": "implementation",
          "type": "address"
        }
      ],
      "name": "Upgraded",
      "type": "event"
    },
    {
      "inputs": [],
      "name": "PERMISSIONS_SET_ROLE",
      "outputs": [
        {
          "internalType": "bytes32",
          "name": "",
          "type": "bytes32"
        }
      ],
      "stateMutability": "view",
      "type": "function"
    },
    {
      "inputs": [],
      "name": "UPGRADE_ROLE",
      "outputs": [
        {
          "internalType": "bytes32",
          "name": "",
          "type": "bytes32"
        }
      ],
      "stateMutability": "view",
      "type": "function"
    },
    {
      "inputs": [
        {
          "internalType": "string",
          "name": "role",
          "type": "string"
        }
      ],
      "name": "checkPermission",
      "outputs": [
        {
          "internalType": "bool",
          "name": "valid",
          "type": "bool"
        }
      ],
      "stateMutability": "view",
      "type": "function"
    },
    {
      "inputs": [
        {
          "internalType": "contract DAO",
          "name": "_dao",
          "type": "address"
        }
      ],
      "name": "initialize",
      "outputs": [],
      "stateMutability": "nonpayable",
      "type": "function"
    },
    {
      "inputs": [
        {
          "internalType": "string",
          "name": "",
          "type": "string"
        }
      ],
      "name": "permissions",
      "outputs": [
        {
          "internalType": "enum Permissions.Operator",
          "name": "operator",
          "type": "uint8"
        }
      ],
      "stateMutability": "view",
      "type": "function"
    },
    {
      "inputs": [
        {
          "internalType": "string",
          "name": "role",
          "type": "string"
        },
        {
          "components": [
            {
              "internalType": "enum Permissions.Operator",
              "name": "operator",
              "type": "uint8"
            },
            {
              "internalType": "contract PermissionValidator[]",
              "name": "validators",
              "type": "address[]"
            },
            {
              "internalType": "bytes[]",
              "name": "data",
              "type": "bytes[]"
            }
          ],
          "internalType": "struct Permissions.Permission",
          "name": "permission",
          "type": "tuple"
        }
      ],
      "name": "setRole",
      "outputs": [],
      "stateMutability": "nonpayable",
      "type": "function"
    },
    {
      "inputs": [
        {
          "internalType": "address",
          "name": "newImplementation",
          "type": "address"
        }
      ],
      "name": "upgradeTo",
      "outputs": [],
      "stateMutability": "nonpayable",
      "type": "function"
    },
    {
      "inputs": [
        {
          "internalType": "address",
          "name": "newImplementation",
          "type": "address"
        },
        {
          "internalType": "bytes",
          "name": "data",
          "type": "bytes"
        }
      ],
      "name": "upgradeToAndCall",
      "outputs": [],
      "stateMutability": "payable",
      "type": "function"
    }
  ],
  "bytecode": "0x60a06040523060601b60805234801561001757600080fd5b50600054600160a81b900460ff168061003a5750600054600160a01b900460ff16155b6100a15760405162461bcd60e51b815260206004820152602e60248201527f496e697469616c697a61626c653a20636f6e747261637420697320616c72656160448201526d191e481a5b9a5d1a585b1a5e995960921b606482015260840160405180910390fd5b600054600160a81b900460ff161580156100cb576000805461ffff60a01b191661010160a01b1790555b80156100df576000805460ff60a81b191690555b5060805160601c611a27610113600039600081816101f30152818161028e01528181610396015261042c0152611a276000f3fe60806040526004361061007b5760003560e01c80638050aef01161004e5780638050aef014610132578063a4e479f514610174578063b908afa814610194578063c4d66de8146101c857600080fd5b80633659cfe6146100805780634f1ef286146100a2578063721da993146100b5578063752708fb146100ea575b600080fd5b34801561008c57600080fd5b506100a061009b366004611180565b6101e8565b005b6100a06100b036600461119d565b61038b565b3480156100c157600080fd5b506100d56100d0366004611223565b61051a565b60405190151581526020015b60405180910390f35b3480156100f657600080fd5b506101256101053660046112d5565b805160208183018101805160018252928201919093012091525460ff1681565b6040516100e191906114ae565b34801561013e57600080fd5b506101667f2c7a95334ec88a96c5cdf6d7ce6da1be07d013bbbf2610e1d0ea7f441eb2f6d181565b6040519081526020016100e1565b34801561018057600080fd5b506100a061018f366004611265565b61088b565b3480156101a057600080fd5b506101667f88aa719609f728b0c5e7fb8dd3608d5c25d497efbb3b9dd64e9251ebba10150881565b3480156101d457600080fd5b506100a06101e3366004611180565b610a24565b306001600160a01b037f000000000000000000000000000000000000000000000000000000000000000016141561028c5760405162461bcd60e51b815260206004820152602c60248201527f46756e6374696f6e206d7573742062652063616c6c6564207468726f7567682060448201527f64656c656761746563616c6c000000000000000000000000000000000000000060648201526084015b60405180910390fd5b7f00000000000000000000000000000000000000000000000000000000000000006001600160a01b03166102e77f360894a13ba1a3210667c828492db98dca3e2076cc3735a920a3ca505d382bbc546001600160a01b031690565b6001600160a01b0316146103635760405162461bcd60e51b815260206004820152602c60248201527f46756e6374696f6e206d7573742062652063616c6c6564207468726f7567682060448201527f6163746976652070726f787900000000000000000000000000000000000000006064820152608401610283565b61036c81610b9c565b6040805160008082526020820190925261038891839190610cab565b50565b306001600160a01b037f000000000000000000000000000000000000000000000000000000000000000016141561042a5760405162461bcd60e51b815260206004820152602c60248201527f46756e6374696f6e206d7573742062652063616c6c6564207468726f7567682060448201527f64656c656761746563616c6c00000000000000000000000000000000000000006064820152608401610283565b7f00000000000000000000000000000000000000000000000000000000000000006001600160a01b03166104857f360894a13ba1a3210667c828492db98dca3e2076cc3735a920a3ca505d382bbc546001600160a01b031690565b6001600160a01b0316146105015760405162461bcd60e51b815260206004820152602c60248201527f46756e6374696f6e206d7573742062652063616c6c6564207468726f7567682060448201527f6163746976652070726f787900000000000000000000000000000000000000006064820152608401610283565b61050a82610b9c565b61051682826001610cab565b5050565b6000806001848460405161052f929190611390565b908152604080519182900360209081018320600101805480830285018301909352828452919083018282801561058e57602002820191906000526020600020905b81546001600160a01b03168152600190910190602001808311610570575b505050505090506000600185856040516105a9929190611390565b9081526040519081900360200181205460ff1691506000906001906105d19088908890611390565b9081526020016040518091039020600201805480602002602001604051908101604052809291908181526020016000905b828210156106ae5783829060005260206000200180546106219061173a565b80601f016020809104026020016040519081016040528092919081815260200182805461064d9061173a565b801561069a5780601f1061066f5761010080835404028352916020019161069a565b820191906000526020600020905b81548152906001019060200180831161067d57829003601f168201915b505050505081526020019060010190610602565b5050505090506000835190506000805b828110156107a15760008682815181106106da576106da6117bc565b60200260200101519050806001600160a01b031663ee88d8fc33878581518110610706576107066117bc565b60200260200101516040518363ffffffff1660e01b815260040161072b92919061148c565b60206040518083038186803b15801561074357600080fd5b505afa158015610757573d6000803e3d6000fd5b505050506040513d601f19601f8201168201806040525081019061077b9190611201565b1561078e5761078b6001846115a9565b92505b508061079981611775565b9150506106be565b5060018460038111156107b6576107b66117a6565b1480156107c55750818160ff16145b156107d857600195505050505050610885565b60008460038111156107ec576107ec6117a6565b1480156107fd575060018160ff1610155b1561081057600195505050505050610885565b6002846003811115610824576108246117a6565b1480156108335750818160ff16105b1561084657600195505050505050610885565b600384600381111561085a5761085a6117a6565b148015610868575060ff8116155b1561087b57600195505050505050610885565b6000955050505050505b92915050565b6000546040517f6d6712d80000000000000000000000000000000000000000000000000000000081523060048201523360248201527f2c7a95334ec88a96c5cdf6d7ce6da1be07d013bbbf2610e1d0ea7f441eb2f6d160448201819052916001600160a01b031690636d6712d890606401602060405180830381600087803b15801561091657600080fd5b505af115801561092a573d6000803e3d6000fd5b505050506040513d601f19601f8201168201806040525081019061094e9190611201565b61099a5760405162461bcd60e51b815260206004820152600b60248201527f617574683a20636865636b0000000000000000000000000000000000000000006044820152606401610283565b81600185856040516109ad929190611390565b9081526040519081900360200190206109c682826117e8565b50506040516109d69083906113a0565b604051809103902084846040516109ee929190611390565b604051908190038120907f3acee1d80e910c50c4c8a9df4438f9904b5822e7bea5307fae7b7187383ddac790600090a350505050565b6000547501000000000000000000000000000000000000000000900460ff1680610a69575060005474010000000000000000000000000000000000000000900460ff16155b610adb5760405162461bcd60e51b815260206004820152602e60248201527f496e697469616c697a61626c653a20636f6e747261637420697320616c72656160448201527f647920696e697469616c697a65640000000000000000000000000000000000006064820152608401610283565b6000547501000000000000000000000000000000000000000000900460ff16158015610b4257600080547fffffffffffffffffffff0000ffffffffffffffffffffffffffffffffffffffff1675010100000000000000000000000000000000000000001790555b6000805473ffffffffffffffffffffffffffffffffffffffff19166001600160a01b038416179055801561051657600080547fffffffffffffffffffff00ffffffffffffffffffffffffffffffffffffffffff1690555050565b6000546040517f6d6712d80000000000000000000000000000000000000000000000000000000081523060048201523360248201527f88aa719609f728b0c5e7fb8dd3608d5c25d497efbb3b9dd64e9251ebba10150860448201819052916001600160a01b031690636d6712d890606401602060405180830381600087803b158015610c2757600080fd5b505af1158015610c3b573d6000803e3d6000fd5b505050506040513d601f19601f82011682018060405250810190610c5f9190611201565b6105165760405162461bcd60e51b815260206004820152600b60248201527f617574683a20636865636b0000000000000000000000000000000000000000006044820152606401610283565b6000610cde7f360894a13ba1a3210667c828492db98dca3e2076cc3735a920a3ca505d382bbc546001600160a01b031690565b9050610ce984610e6f565b600083511180610cf65750815b15610d0757610d058484610f31565b505b7f4910fdfa16fed3260ed0e7147f7cc6da11a60208b5b9406d12a635614ffd9143805460ff16610e6857805460ff191660011781556040516001600160a01b0383166024820152610db490869060440160408051601f198184030181529190526020810180517bffffffffffffffffffffffffffffffffffffffffffffffffffffffff167f3659cfe600000000000000000000000000000000000000000000000000000000179052610f31565b50805460ff191681557f360894a13ba1a3210667c828492db98dca3e2076cc3735a920a3ca505d382bbc546001600160a01b03838116911614610e5f5760405162461bcd60e51b815260206004820152602f60248201527f45524331393637557067726164653a207570677261646520627265616b73206660448201527f75727468657220757067726164657300000000000000000000000000000000006064820152608401610283565b610e6885610f5d565b5050505050565b803b610ee35760405162461bcd60e51b815260206004820152602d60248201527f455243313936373a206e657720696d706c656d656e746174696f6e206973206e60448201527f6f74206120636f6e7472616374000000000000000000000000000000000000006064820152608401610283565b7f360894a13ba1a3210667c828492db98dca3e2076cc3735a920a3ca505d382bbc805473ffffffffffffffffffffffffffffffffffffffff19166001600160a01b0392909216919091179055565b6060610f5683836040518060600160405280602781526020016119cb60279139610f9d565b9392505050565b610f6681610e6f565b6040516001600160a01b038216907fbc7cd75a20ee27fd9adebab32041f755214dbc6bffa90cc0225b39da2e5c2d3b90600090a250565b6060833b6110135760405162461bcd60e51b815260206004820152602660248201527f416464726573733a2064656c65676174652063616c6c20746f206e6f6e2d636f60448201527f6e747261637400000000000000000000000000000000000000000000000000006064820152608401610283565b600080856001600160a01b03168560405161102e9190611374565b600060405180830381855af49150503d8060008114611069576040519150601f19603f3d011682016040523d82523d6000602084013e61106e565b606091505b509150915061107e828286611088565b9695505050505050565b60608315611097575081610f56565b8251156110a75782518084602001fd5b8160405162461bcd60e51b815260040161028391906114bc565b600067ffffffffffffffff808411156110dc576110dc6117d2565b604051601f8501601f19908116603f01168101908282118183101715611104576111046117d2565b8160405280935085815286868601111561111d57600080fd5b858560208301376000602087830101525050509392505050565b60008083601f84011261114957600080fd5b50813567ffffffffffffffff81111561116157600080fd5b60208301915083602082850101111561117957600080fd5b9250929050565b60006020828403121561119257600080fd5b8135610f56816119a8565b600080604083850312156111b057600080fd5b82356111bb816119a8565b9150602083013567ffffffffffffffff8111156111d757600080fd5b8301601f810185136111e857600080fd5b6111f7858235602084016110c1565b9150509250929050565b60006020828403121561121357600080fd5b81518015158114610f5657600080fd5b6000806020838503121561123657600080fd5b823567ffffffffffffffff81111561124d57600080fd5b61125985828601611137565b90969095509350505050565b60008060006040848603121561127a57600080fd5b833567ffffffffffffffff8082111561129257600080fd5b61129e87838801611137565b909550935060208601359150808211156112b757600080fd5b508401606081870312156112ca57600080fd5b809150509250925092565b6000602082840312156112e757600080fd5b813567ffffffffffffffff8111156112fe57600080fd5b8201601f8101841361130f57600080fd5b61131e848235602084016110c1565b949350505050565b6000815180845261133e81602086016020860161170a565b601f01601f19169290920160200192915050565b6004811061137057634e487b7160e01b600052602160045260246000fd5b9052565b6000825161138681846020870161170a565b9190910192915050565b8183823760009101908152919050565b600082356113ad816119bd565b6113b78382611352565b5060208083016113c982860186611560565b9091600091905b818310156114005783356113e3816119a8565b6001600160a01b03168152928401926001929092019184016113d0565b61140d6040890189611560565b9450925090508160005b8481101561147f578135601e1985360301811261143357600080fd5b8401803567ffffffffffffffff81111561144c57600080fd5b80360386131561145b57600080fd5b808883018637600085820152601f01601f1916909301925090850190600101611417565b5090979650505050505050565b6001600160a01b038316815260406020820152600061131e6040830184611326565b602081016108858284611352565b602081526000610f566020830184611326565b6000808335601e198436030181126114e657600080fd5b83018035915067ffffffffffffffff82111561150157600080fd5b6020019150600581901b360382131561117957600080fd5b6000808335601e1984360301811261153057600080fd5b83018035915067ffffffffffffffff82111561154b57600080fd5b60200191503681900382131561117957600080fd5b6000808335601e1984360301811261157757600080fd5b830160208101925035905067ffffffffffffffff81111561159757600080fd5b8060051b360383131561117957600080fd5b600060ff821660ff84168060ff038211156115c6576115c6611790565b019392505050565b601f82111561160757806000526020600020601f840160051c810160208510156115f55750805b610e68601f850160051c83018261160c565b505050565b5b81811015610516576000815560010161160d565b6801000000000000000083111561163a5761163a6117d2565b8054838255808410156116c3576000828152602081208581019083015b808210156116bf57611669825461173a565b80156116b357601f80821160018114611684578585556116b0565b6000858152602090206116a183850160051c82016001830161160c565b50600085815260208120818755555b50505b50600182019150611657565b5050505b5060008181526020812083915b85811015611702576116e28386611519565b6116ed8183866118e8565b505060209290920191600191820191016116d0565b505050505050565b60005b8381101561172557818101518382015260200161170d565b83811115611734576000848401525b50505050565b600181811c9082168061174e57607f821691505b6020821081141561176f57634e487b7160e01b600052602260045260246000fd5b50919050565b600060001982141561178957611789611790565b5060010190565b634e487b7160e01b600052601160045260246000fd5b634e487b7160e01b600052602160045260246000fd5b634e487b7160e01b600052603260045260246000fd5b634e487b7160e01b600052604160045260246000fd5b81356117f3816119bd565b6004811061181157634e487b7160e01b600052602160045260246000fd5b60ff1982541660ff821681178355505060018082016020611834818601866114cf565b6801000000000000000081111561184d5761184d6117d2565b83548185558082101561187257846000528360002061187082820184830161160c565b505b506000938452828420935b818110156118c7578235611890816119a8565b855473ffffffffffffffffffffffffffffffffffffffff19166001600160a01b03919091161785559385019391830191850161187d565b5050505050506118da60408301836114cf565b611734818360028601611621565b67ffffffffffffffff831115611900576119006117d2565b6119148361190e835461173a565b836115ce565b6000601f84116001811461194857600085156119305750838201355b600019600387901b1c1916600186901b178355610e68565b600083815260209020601f19861690835b828110156119795786850135825560209485019460019092019101611959565b50868210156119965760001960f88860031b161c19848701351681555b505060018560011b0183555050505050565b6001600160a01b038116811461038857600080fd5b6004811061038857600080fdfe416464726573733a206c6f772d6c6576656c2064656c65676174652063616c6c206661696c6564a264697066735822122023af215474469320ee46773db795fcda2af971d740d61526e8e434ca8a2e972664736f6c63430008060033",
  "linkReferences": {},
  "deployedLinkReferences": {}
}