{
  "_format": "hh-sol-artifact-1",
  "contractName": "Processes",
  "sourceName": "contracts/src/processes/Processes.sol",
  "abi": [
    {
      "inputs": [],
      "stateMutability": "nonpayable",
      "type": "constructor"
    },
    {
      "anonymous": false,
      "inputs": [
        {
          "indexed": false,
          "internalType": "address",
          "name": "previousAdmin",
          "type": "address"
        },
        {
          "indexed": false,
          "internalType": "address",
          "name": "newAdmin",
          "type": "address"
        }
      ],
      "name": "AdminChanged",
      "type": "event"
    },
    {
      "anonymous": false,
      "inputs": [
        {
          "indexed": true,
          "internalType": "address",
          "name": "beacon",
          "type": "address"
        }
      ],
      "name": "BeaconUpgraded",
      "type": "event"
    },
    {
      "anonymous": false,
      "inputs": [
        {
          "indexed": true,
          "internalType": "string",
          "name": "name",
          "type": "string"
        },
        {
          "components": [
            {
              "internalType": "contract GovernancePrimitive",
              "name": "governancePrimitive",
              "type": "address"
            },
            {
              "components": [
                {
                  "internalType": "string",
                  "name": "start",
                  "type": "string"
                },
                {
                  "internalType": "string",
                  "name": "execute",
                  "type": "string"
                },
                {
                  "internalType": "string",
                  "name": "halt",
                  "type": "string"
                },
                {
                  "internalType": "string",
                  "name": "forward",
                  "type": "string"
                },
                {
                  "internalType": "string",
                  "name": "stop",
                  "type": "string"
                },
                {
                  "internalType": "string",
                  "name": "vote",
                  "type": "string"
                }
              ],
              "internalType": "struct Permissions.GovernancePrimitivePermissions",
              "name": "permissions",
              "type": "tuple"
            },
            {
              "components": [
                {
                  "internalType": "address",
                  "name": "to",
                  "type": "address"
                },
                {
                  "internalType": "bytes4[]",
                  "name": "methods",
                  "type": "bytes4[]"
                }
              ],
              "internalType": "struct Processes.AllowedActions[]",
              "name": "allowedActions",
              "type": "tuple[]"
            },
            {
              "internalType": "bytes",
              "name": "metadata",
              "type": "bytes"
            }
          ],
          "indexed": true,
          "internalType": "struct Processes.Process",
          "name": "process",
          "type": "tuple"
        }
      ],
      "name": "NewProcessAdded",
      "type": "event"
    },
    {
      "anonymous": false,
      "inputs": [
        {
          "components": [
            {
              "internalType": "string",
              "name": "processName",
              "type": "string"
            },
            {
              "components": [
                {
                  "internalType": "address",
                  "name": "to",
                  "type": "address"
                },
                {
                  "internalType": "uint256",
                  "name": "value",
                  "type": "uint256"
                },
                {
                  "internalType": "bytes",
                  "name": "data",
                  "type": "bytes"
                }
              ],
              "internalType": "struct Executor.Action[]",
              "name": "actions",
              "type": "tuple[]"
            },
            {
              "internalType": "bytes",
              "name": "metadata",
              "type": "bytes"
            },
            {
              "internalType": "bytes",
              "name": "additionalArguments",
              "type": "bytes"
            }
          ],
          "indexed": true,
          "internalType": "struct GovernancePrimitive.Proposal",
          "name": "proposal",
          "type": "tuple"
        },
        {
          "indexed": true,
          "internalType": "uint256",
          "name": "executionId",
          "type": "uint256"
        }
      ],
      "name": "ProcessStarted",
      "type": "event"
    },
    {
      "anonymous": false,
      "inputs": [
        {
          "indexed": true,
          "internalType": "address",
          "name": "implementation",
          "type": "address"
        }
      ],
      "name": "Upgraded",
      "type": "event"
    },
    {
      "inputs": [],
      "name": "PROCESSES_SET_ROLE",
      "outputs": [
        {
          "internalType": "bytes32",
          "name": "",
          "type": "bytes32"
        }
      ],
      "stateMutability": "view",
      "type": "function"
    },
    {
      "inputs": [],
      "name": "PROCESSES_START_ROLE",
      "outputs": [
        {
          "internalType": "bytes32",
          "name": "",
          "type": "bytes32"
        }
      ],
      "stateMutability": "view",
      "type": "function"
    },
    {
      "inputs": [],
      "name": "UPGRADE_ROLE",
      "outputs": [
        {
          "internalType": "bytes32",
          "name": "",
          "type": "bytes32"
        }
      ],
      "stateMutability": "view",
      "type": "function"
    },
    {
      "inputs": [
        {
          "internalType": "contract DAO",
          "name": "_dao",
          "type": "address"
        }
      ],
      "name": "initialize",
      "outputs": [],
      "stateMutability": "nonpayable",
      "type": "function"
    },
    {
      "inputs": [
        {
          "internalType": "string",
          "name": "",
          "type": "string"
        }
      ],
      "name": "processes",
      "outputs": [
        {
          "internalType": "contract GovernancePrimitive",
          "name": "governancePrimitive",
          "type": "address"
        },
        {
          "components": [
            {
              "internalType": "string",
              "name": "start",
              "type": "string"
            },
            {
              "internalType": "string",
              "name": "execute",
              "type": "string"
            },
            {
              "internalType": "string",
              "name": "halt",
              "type": "string"
            },
            {
              "internalType": "string",
              "name": "forward",
              "type": "string"
            },
            {
              "internalType": "string",
              "name": "stop",
              "type": "string"
            },
            {
              "internalType": "string",
              "name": "vote",
              "type": "string"
            }
          ],
          "internalType": "struct Permissions.GovernancePrimitivePermissions",
          "name": "permissions",
          "type": "tuple"
        },
        {
          "internalType": "bytes",
          "name": "metadata",
          "type": "bytes"
        }
      ],
      "stateMutability": "view",
      "type": "function"
    },
    {
      "inputs": [
        {
          "internalType": "string",
          "name": "name",
          "type": "string"
        },
        {
          "components": [
            {
              "internalType": "contract GovernancePrimitive",
              "name": "governancePrimitive",
              "type": "address"
            },
            {
              "components": [
                {
                  "internalType": "string",
                  "name": "start",
                  "type": "string"
                },
                {
                  "internalType": "string",
                  "name": "execute",
                  "type": "string"
                },
                {
                  "internalType": "string",
                  "name": "halt",
                  "type": "string"
                },
                {
                  "internalType": "string",
                  "name": "forward",
                  "type": "string"
                },
                {
                  "internalType": "string",
                  "name": "stop",
                  "type": "string"
                },
                {
                  "internalType": "string",
                  "name": "vote",
                  "type": "string"
                }
              ],
              "internalType": "struct Permissions.GovernancePrimitivePermissions",
              "name": "permissions",
              "type": "tuple"
            },
            {
              "components": [
                {
                  "internalType": "address",
                  "name": "to",
                  "type": "address"
                },
                {
                  "internalType": "bytes4[]",
                  "name": "methods",
                  "type": "bytes4[]"
                }
              ],
              "internalType": "struct Processes.AllowedActions[]",
              "name": "allowedActions",
              "type": "tuple[]"
            },
            {
              "internalType": "bytes",
              "name": "metadata",
              "type": "bytes"
            }
          ],
          "internalType": "struct Processes.Process",
          "name": "process",
          "type": "tuple"
        }
      ],
      "name": "setProcess",
      "outputs": [],
      "stateMutability": "nonpayable",
      "type": "function"
    },
    {
      "inputs": [
        {
          "components": [
            {
              "internalType": "string",
              "name": "processName",
              "type": "string"
            },
            {
              "components": [
                {
                  "internalType": "address",
                  "name": "to",
                  "type": "address"
                },
                {
                  "internalType": "uint256",
                  "name": "value",
                  "type": "uint256"
                },
                {
                  "internalType": "bytes",
                  "name": "data",
                  "type": "bytes"
                }
              ],
              "internalType": "struct Executor.Action[]",
              "name": "actions",
              "type": "tuple[]"
            },
            {
              "internalType": "bytes",
              "name": "metadata",
              "type": "bytes"
            },
            {
              "internalType": "bytes",
              "name": "additionalArguments",
              "type": "bytes"
            }
          ],
          "internalType": "struct GovernancePrimitive.Proposal",
          "name": "proposal",
          "type": "tuple"
        }
      ],
      "name": "start",
      "outputs": [
        {
          "components": [
            {
              "internalType": "contract GovernancePrimitive",
              "name": "governancePrimitive",
              "type": "address"
            },
            {
              "components": [
                {
                  "internalType": "string",
                  "name": "start",
                  "type": "string"
                },
                {
                  "internalType": "string",
                  "name": "execute",
                  "type": "string"
                },
                {
                  "internalType": "string",
                  "name": "halt",
                  "type": "string"
                },
                {
                  "internalType": "string",
                  "name": "forward",
                  "type": "string"
                },
                {
                  "internalType": "string",
                  "name": "stop",
                  "type": "string"
                },
                {
                  "internalType": "string",
                  "name": "vote",
                  "type": "string"
                }
              ],
              "internalType": "struct Permissions.GovernancePrimitivePermissions",
              "name": "permissions",
              "type": "tuple"
            },
            {
              "components": [
                {
                  "internalType": "address",
                  "name": "to",
                  "type": "address"
                },
                {
                  "internalType": "bytes4[]",
                  "name": "methods",
                  "type": "bytes4[]"
                }
              ],
              "internalType": "struct Processes.AllowedActions[]",
              "name": "allowedActions",
              "type": "tuple[]"
            },
            {
              "internalType": "bytes",
              "name": "metadata",
              "type": "bytes"
            }
          ],
          "internalType": "struct Processes.Process",
          "name": "process",
          "type": "tuple"
        },
        {
          "internalType": "uint256",
          "name": "executionId",
          "type": "uint256"
        }
      ],
      "stateMutability": "nonpayable",
      "type": "function"
    },
    {
      "inputs": [
        {
          "internalType": "address",
          "name": "newImplementation",
          "type": "address"
        }
      ],
      "name": "upgradeTo",
      "outputs": [],
      "stateMutability": "nonpayable",
      "type": "function"
    },
    {
      "inputs": [
        {
          "internalType": "address",
          "name": "newImplementation",
          "type": "address"
        },
        {
          "internalType": "bytes",
          "name": "data",
          "type": "bytes"
        }
      ],
      "name": "upgradeToAndCall",
      "outputs": [],
      "stateMutability": "payable",
      "type": "function"
    }
  ],
  "bytecode": "0x60a06040523060601b6080523480156200001857600080fd5b50600054600160a81b900460ff16806200003c5750600054600160a01b900460ff16155b620000a45760405162461bcd60e51b815260206004820152602e60248201527f496e697469616c697a61626c653a20636f6e747261637420697320616c72656160448201526d191e481a5b9a5d1a585b1a5e995960921b606482015260840160405180910390fd5b600054600160a81b900460ff16158015620000cf576000805461ffff60a01b191661010160a01b1790555b8015620000e4576000805460ff60a81b191690555b5060805160601c612c8562000119600039600081816109d501528181610a6b01528181610cf30152610d890152612c856000f3fe6080604052600436106100965760003560e01c80634f1ef2861161006957806373dea80d1161004e57806373dea80d14610198578063b908afa8146101cc578063c4d66de81461020057600080fd5b80634f1ef286146101565780637053ea071461016957600080fd5b80632c6f5f211461009b5780633659cfe6146100d25780633e235cdf146100f457806346b2057514610136575b600080fd5b3480156100a757600080fd5b506100bb6100b6366004611d55565b610220565b6040516100c99291906123de565b60405180910390f35b3480156100de57600080fd5b506100f26100ed366004611bcd565b6109ca565b005b34801561010057600080fd5b506101287f2ec6aaf37928bdccebb5b7ceed4547c77d96f94274dc3605bcc2cf29c22f50f281565b6040519081526020016100c9565b34801561014257600080fd5b506100f2610151366004611c70565b610b68565b6100f2610164366004611bea565b610ce8565b34801561017557600080fd5b50610189610184366004611d04565b610e77565b6040516100c99392919061226e565b3480156101a457600080fd5b506101287f2fcdaec8cad6a3744315fd405312d932e856c986599dc919b7123058aa283b4a81565b3480156101d857600080fd5b506101287f88aa719609f728b0c5e7fb8dd3608d5c25d497efbb3b9dd64e9251ebba10150881565b34801561020c57600080fd5b506100f261021b366004611bcd565b6112b1565b610228611ad7565b60008054604051630dace25b60e31b81523060048201523360248201527f2ec6aaf37928bdccebb5b7ceed4547c77d96f94274dc3605bcc2cf29c22f50f260448201819052916001600160a01b031690636d6712d890606401602060405180830381600087803b15801561029b57600080fd5b505af11580156102af573d6000803e3d6000fd5b505050506040513d601f19601f820116820180604052508101906102d39190611c4e565b6103245760405162461bcd60e51b815260206004820152600b60248201527f617574683a20636865636b00000000000000000000000000000000000000000060448201526064015b60405180910390fd5b60016103308580612451565b60405161033e92919061208d565b90815260408051918290036020908101832060808401835280546001600160a01b03168452825160c08101909352600181018054919392850192918290829061038690612817565b80601f01602080910402602001604051908101604052809291908181526020018280546103b290612817565b80156103ff5780601f106103d4576101008083540402835291602001916103ff565b820191906000526020600020905b8154815290600101906020018083116103e257829003601f168201915b5050505050815260200160018201805461041890612817565b80601f016020809104026020016040519081016040528092919081815260200182805461044490612817565b80156104915780601f1061046657610100808354040283529160200191610491565b820191906000526020600020905b81548152906001019060200180831161047457829003601f168201915b505050505081526020016002820180546104aa90612817565b80601f01602080910402602001604051908101604052809291908181526020018280546104d690612817565b80156105235780601f106104f857610100808354040283529160200191610523565b820191906000526020600020905b81548152906001019060200180831161050657829003601f168201915b5050505050815260200160038201805461053c90612817565b80601f016020809104026020016040519081016040528092919081815260200182805461056890612817565b80156105b55780601f1061058a576101008083540402835291602001916105b5565b820191906000526020600020905b81548152906001019060200180831161059857829003601f168201915b505050505081526020016004820180546105ce90612817565b80601f01602080910402602001604051908101604052809291908181526020018280546105fa90612817565b80156106475780601f1061061c57610100808354040283529160200191610647565b820191906000526020600020905b81548152906001019060200180831161062a57829003601f168201915b5050505050815260200160058201805461066090612817565b80601f016020809104026020016040519081016040528092919081815260200182805461068c90612817565b80156106d95780601f106106ae576101008083540402835291602001916106d9565b820191906000526020600020905b8154815290600101906020018083116106bc57829003601f168201915b505050505081525050815260200160078201805480602002602001604051908101604052809291908181526020016000905b828210156107e25760008481526020908190206040805180820182526002860290920180546001600160a01b031683526001810180548351818702810187019094528084529394919385830193928301828280156107ca57602002820191906000526020600020906000905b82829054906101000a900460e01b7bffffffffffffffffffffffffffffffffffffffffffffffffffffffff1916815260200190600401906020826003010492830192600103820291508084116107775790505b5050505050815250508152602001906001019061070b565b5050505081526020016008820180546107fa90612817565b80601f016020809104026020016040519081016040528092919081815260200182805461082690612817565b80156108735780601f1061084857610100808354040283529160200191610873565b820191906000526020600020905b81548152906001019060200180831161085657829003601f168201915b505050505081525050925061089b8480602001906108919190612400565b8560400151611429565b6108e75760405162461bcd60e51b815260206004820152601360248201527f4e6f7420616c6c6f77656420616374696f6e2100000000000000000000000000604482015260640161031b565b82516040517f6929279e0000000000000000000000000000000000000000000000000000000081526001600160a01b0390911690636929279e9061093190869088906004016122b5565b602060405180830381600087803b15801561094b57600080fd5b505af115801561095f573d6000803e3d6000fd5b505050506040513d601f19601f820116820180604052508101906109839190611d8a565b9150818460405161099491906121ac565b604051908190038120907fdd0ae7804a963900d76c7c819daed8f8036848a5e56c6cd9d7317608dafcd54990600090a350915091565b306001600160a01b037f0000000000000000000000000000000000000000000000000000000000000000161415610a695760405162461bcd60e51b815260206004820152602c60248201527f46756e6374696f6e206d7573742062652063616c6c6564207468726f7567682060448201527f64656c656761746563616c6c0000000000000000000000000000000000000000606482015260840161031b565b7f00000000000000000000000000000000000000000000000000000000000000006001600160a01b0316610ac47f360894a13ba1a3210667c828492db98dca3e2076cc3735a920a3ca505d382bbc546001600160a01b031690565b6001600160a01b031614610b405760405162461bcd60e51b815260206004820152602c60248201527f46756e6374696f6e206d7573742062652063616c6c6564207468726f7567682060448201527f6163746976652070726f78790000000000000000000000000000000000000000606482015260840161031b565b610b49816115d2565b60408051600080825260208201909252610b65918391906116c8565b50565b600054604051630dace25b60e31b81523060048201523360248201527f2fcdaec8cad6a3744315fd405312d932e856c986599dc919b7123058aa283b4a60448201819052916001600160a01b031690636d6712d890606401602060405180830381600087803b158015610bda57600080fd5b505af1158015610bee573d6000803e3d6000fd5b505050506040513d601f19601f82011682018060405250810190610c129190611c4e565b610c5e5760405162461bcd60e51b815260206004820152600b60248201527f617574683a20636865636b000000000000000000000000000000000000000000604482015260640161031b565b8160018585604051610c7192919061208d565b908152604051908190036020019020610c8a828261293f565b5050604051610c9a90839061209d565b60405180910390208484604051610cb292919061208d565b604051908190038120907fbea145d6c1db37b094aaf8e2dbc8bf273c660615db7925fda8384704cf45c81c90600090a350505050565b306001600160a01b037f0000000000000000000000000000000000000000000000000000000000000000161415610d875760405162461bcd60e51b815260206004820152602c60248201527f46756e6374696f6e206d7573742062652063616c6c6564207468726f7567682060448201527f64656c656761746563616c6c0000000000000000000000000000000000000000606482015260840161031b565b7f00000000000000000000000000000000000000000000000000000000000000006001600160a01b0316610de27f360894a13ba1a3210667c828492db98dca3e2076cc3735a920a3ca505d382bbc546001600160a01b031690565b6001600160a01b031614610e5e5760405162461bcd60e51b815260206004820152602c60248201527f46756e6374696f6e206d7573742062652063616c6c6564207468726f7567682060448201527f6163746976652070726f78790000000000000000000000000000000000000000606482015260840161031b565b610e67826115d2565b610e73828260016116c8565b5050565b80516020818301810180516001808352938301929094019190912092905281546040805160c0810190915291830180546001600160a01b0390921693929182908290610ec290612817565b80601f0160208091040260200160405190810160405280929190818152602001828054610eee90612817565b8015610f3b5780601f10610f1057610100808354040283529160200191610f3b565b820191906000526020600020905b815481529060010190602001808311610f1e57829003601f168201915b50505050508152602001600182018054610f5490612817565b80601f0160208091040260200160405190810160405280929190818152602001828054610f8090612817565b8015610fcd5780601f10610fa257610100808354040283529160200191610fcd565b820191906000526020600020905b815481529060010190602001808311610fb057829003601f168201915b50505050508152602001600282018054610fe690612817565b80601f016020809104026020016040519081016040528092919081815260200182805461101290612817565b801561105f5780601f106110345761010080835404028352916020019161105f565b820191906000526020600020905b81548152906001019060200180831161104257829003601f168201915b5050505050815260200160038201805461107890612817565b80601f01602080910402602001604051908101604052809291908181526020018280546110a490612817565b80156110f15780601f106110c6576101008083540402835291602001916110f1565b820191906000526020600020905b8154815290600101906020018083116110d457829003601f168201915b5050505050815260200160048201805461110a90612817565b80601f016020809104026020016040519081016040528092919081815260200182805461113690612817565b80156111835780601f1061115857610100808354040283529160200191611183565b820191906000526020600020905b81548152906001019060200180831161116657829003601f168201915b5050505050815260200160058201805461119c90612817565b80601f01602080910402602001604051908101604052809291908181526020018280546111c890612817565b80156112155780601f106111ea57610100808354040283529160200191611215565b820191906000526020600020905b8154815290600101906020018083116111f857829003601f168201915b5050505050815250509080600801805461122e90612817565b80601f016020809104026020016040519081016040528092919081815260200182805461125a90612817565b80156112a75780601f1061127c576101008083540402835291602001916112a7565b820191906000526020600020905b81548152906001019060200180831161128a57829003601f168201915b5050505050905083565b6000547501000000000000000000000000000000000000000000900460ff16806112f6575060005474010000000000000000000000000000000000000000900460ff16155b6113685760405162461bcd60e51b815260206004820152602e60248201527f496e697469616c697a61626c653a20636f6e747261637420697320616c72656160448201527f647920696e697469616c697a6564000000000000000000000000000000000000606482015260840161031b565b6000547501000000000000000000000000000000000000000000900460ff161580156113cf57600080547fffffffffffffffffffff0000ffffffffffffffffffffffffffffffffffffffff1675010100000000000000000000000000000000000000001790555b6000805473ffffffffffffffffffffffffffffffffffffffff19166001600160a01b0384161790558015610e7357600080547fffffffffffffffffffff00ffffffffffffffffffffffffffffffffffffffffff1690555050565b8051600090839082805b838110156115c2573688888381811061144e5761144e61287d565b90506020028101906114609190612498565b905060005b8481101561159b5760008882815181106114815761148161287d565b6020026020010151905080600001516001600160a01b03168360000160208101906114ac9190611bcd565b6001600160a01b031614156115885760208101515160005b8181101561157857826020015181815181106114e2576114e261287d565b60200260200101517bffffffffffffffffffffffffffffffffffffffffffffffffffffffff19168580604001906115199190612451565b61152891600491600091612572565b611531916125ef565b7fffffffff000000000000000000000000000000000000000000000000000000001614156115625760019650611578565b60009650806115708161284c565b9150506114c4565b50851561158657505061159b565b505b50806115938161284c565b915050611465565b50826115af576000955050505050506115cb565b50806115ba8161284c565b915050611433565b50600193505050505b9392505050565b600054604051630dace25b60e31b81523060048201523360248201527f88aa719609f728b0c5e7fb8dd3608d5c25d497efbb3b9dd64e9251ebba10150860448201819052916001600160a01b031690636d6712d890606401602060405180830381600087803b15801561164457600080fd5b505af1158015611658573d6000803e3d6000fd5b505050506040513d601f19601f8201168201806040525081019061167c9190611c4e565b610e735760405162461bcd60e51b815260206004820152600b60248201527f617574683a20636865636b000000000000000000000000000000000000000000604482015260640161031b565b60006116fb7f360894a13ba1a3210667c828492db98dca3e2076cc3735a920a3ca505d382bbc546001600160a01b031690565b90506117068461188c565b6000835111806117135750815b1561172457611722848461194e565b505b7f4910fdfa16fed3260ed0e7147f7cc6da11a60208b5b9406d12a635614ffd9143805460ff1661188557805460ff191660011781556040516001600160a01b03831660248201526117d190869060440160408051601f198184030181529190526020810180517bffffffffffffffffffffffffffffffffffffffffffffffffffffffff167f3659cfe60000000000000000000000000000000000000000000000000000000017905261194e565b50805460ff191681557f360894a13ba1a3210667c828492db98dca3e2076cc3735a920a3ca505d382bbc546001600160a01b0383811691161461187c5760405162461bcd60e51b815260206004820152602f60248201527f45524331393637557067726164653a207570677261646520627265616b73206660448201527f7572746865722075706772616465730000000000000000000000000000000000606482015260840161031b565b61188585611973565b5050505050565b803b6119005760405162461bcd60e51b815260206004820152602d60248201527f455243313936373a206e657720696d706c656d656e746174696f6e206973206e60448201527f6f74206120636f6e747261637400000000000000000000000000000000000000606482015260840161031b565b7f360894a13ba1a3210667c828492db98dca3e2076cc3735a920a3ca505d382bbc805473ffffffffffffffffffffffffffffffffffffffff19166001600160a01b0392909216919091179055565b60606115cb8383604051806060016040528060278152602001612c29602791396119b3565b61197c8161188c565b6040516001600160a01b038216907fbc7cd75a20ee27fd9adebab32041f755214dbc6bffa90cc0225b39da2e5c2d3b90600090a250565b6060833b611a295760405162461bcd60e51b815260206004820152602660248201527f416464726573733a2064656c65676174652063616c6c20746f206e6f6e2d636f60448201527f6e74726163740000000000000000000000000000000000000000000000000000606482015260840161031b565b600080856001600160a01b031685604051611a449190612071565b600060405180830381855af49150503d8060008114611a7f576040519150601f19603f3d011682016040523d82523d6000602084013e611a84565b606091505b5091509150611a94828286611a9e565b9695505050505050565b60608315611aad5750816115cb565b825115611abd5782518084602001fd5b8160405162461bcd60e51b815260040161031b91906122a2565b604051806080016040528060006001600160a01b03168152602001611b2b6040518060c001604052806060815260200160608152602001606081526020016060815260200160608152602001606081525090565b815260200160608152602001606081525090565b600067ffffffffffffffff80841115611b5a57611b5a612893565b604051601f8501601f19908116603f01168101908282118183101715611b8257611b82612893565b81604052809350858152868686011115611b9b57600080fd5b858560208301376000602087830101525050509392505050565b600060808284031215611bc757600080fd5b50919050565b600060208284031215611bdf57600080fd5b81356115cb81612be5565b60008060408385031215611bfd57600080fd5b8235611c0881612be5565b9150602083013567ffffffffffffffff811115611c2457600080fd5b8301601f81018513611c3557600080fd5b611c4485823560208401611b3f565b9150509250929050565b600060208284031215611c6057600080fd5b815180151581146115cb57600080fd5b600080600060408486031215611c8557600080fd5b833567ffffffffffffffff80821115611c9d57600080fd5b818601915086601f830112611cb157600080fd5b813581811115611cc057600080fd5b876020828501011115611cd257600080fd5b602092830195509350908501359080821115611ced57600080fd5b50611cfa86828701611bb5565b9150509250925092565b600060208284031215611d1657600080fd5b813567ffffffffffffffff811115611d2d57600080fd5b8201601f81018413611d3e57600080fd5b611d4d84823560208401611b3f565b949350505050565b600060208284031215611d6757600080fd5b813567ffffffffffffffff811115611d7e57600080fd5b611d4d84828501611bb5565b600060208284031215611d9c57600080fd5b5051919050565b60008160005b84811015611e50578135603e19853603018112611dc557600080fd5b84018035611dd281612be5565b6001600160a01b031687526020808801611dee838301846124c4565b9350906000905b84821015611e3e578235611e0881612bfa565b7fffffffff0000000000000000000000000000000000000000000000000000000016815291830191600191909101908301611df5565b99505050929092019150600101611da9565b5093949350505050565b818352818160208501375060006020828401015260006020601f19601f840116840101905092915050565b8181843750600082820152601f01601f19160190565b60008151808452611eb38160208601602086016127e7565b601f01601f19169290920160200192915050565b6000815160c08452611edc60c0850182611e9b565b905060208301518482036020860152611ef58282611e9b565b91505060408301518482036040860152611f0f8282611e9b565b91505060608301518482036060860152611f298282611e9b565b91505060808301518482036080860152611f438282611e9b565b91505060a083015184820360a0860152611f5d8282611e9b565b95945050505050565b60006001600160a01b03808351168452602080840151608082870152611f8f6080870182611ec7565b9050604080860151878303828901528281518085528585019150858160051b86010186840193506000805b8381101561204757878303601f19018552855180518b1684528901518984018890528051888501819052908a0190839060608601905b808310156120325783517fffffffff00000000000000000000000000000000000000000000000000000000168252928c019260019290920191908c0190611ff0565b50978b0197968b019694505050600101611fba565b505060608a015197508a810360608c01526120628189611e9b565b9b9a5050505050505050505050565b600082516120838184602087016127e7565b9190910192915050565b8183823760009101908152919050565b600082356120aa81612be5565b6001600160a01b0316825260208301353684900360be190181126120cd57600080fd5b83016120d9818061250d565b6120e7602086018284611e85565b9150506120f7602083018361250d565b612102838284611e85565b92505050612113604083018361250d565b61211e838284611e85565b9250505061212f606083018361250d565b61213a838284611e85565b9250505061214b608083018361250d565b612156838284611e85565b9250505061216760a083018361250d565b9250612174828483611e85565b9250505061218560408501856124c4565b612190838284611da3565b925050506121a1606085018561250d565b611a94838284611e85565b60006121b8838461250d565b6121c3848284611e85565b91505060206121d4818601866124c4565b909283919060005b8281101561223e576121ee8685612553565b80356121f981612be5565b6001600160a01b031683528086013586840152604061221a8183018361250d565b92506122298286018483611e85565b945050505084860195506001810190506121dc565b5061224c604089018961250d565b9550935061225b818686611e85565b9450505050506121a1606085018561250d565b6001600160a01b03841681526060602082015260006122906060830185611ec7565b8281036040840152611a948185611e9b565b6020815260006115cb6020830184611e9b565b600060408083526122c881840186611f66565b6020848203818601526122db868761250d565b608084526122ed608085018284611e5a565b9150506122fc828801886124c4565b84830384860152808352838301600582901b840185018360005b8481101561238657601f198784030184526123318287612553565b6060813561233e81612be5565b6001600160a01b03168552818a01358a86015261235d8c83018361250d565b9250818d8701526123718287018483611e5a565b968b0196955050509188019150600101612316565b5050612394888c018c61250d565b96509450868103888801526123aa818787611e5a565b97505050505050506123bf606086018661250d565b82840360608401526123d2848284611e5a565b98975050505050505050565b6040815260006123f16040830185611f66565b90508260208301529392505050565b6000808335601e1984360301811261241757600080fd5b83018035915067ffffffffffffffff82111561243257600080fd5b6020019150600581901b360382131561244a57600080fd5b9250929050565b6000808335601e1984360301811261246857600080fd5b83018035915067ffffffffffffffff82111561248357600080fd5b60200191503681900382131561244a57600080fd5b60008235605e1983360301811261208357600080fd5b60008235603e1983360301811261208357600080fd5b6000808335601e198436030181126124db57600080fd5b830160208101925035905067ffffffffffffffff8111156124fb57600080fd5b8060051b360383131561244a57600080fd5b6000808335601e1984360301811261252457600080fd5b830160208101925035905067ffffffffffffffff81111561254457600080fd5b80360383131561244a57600080fd5b60008235605e1983360301811261256957600080fd5b90910192915050565b6000808585111561258257600080fd5b8386111561258f57600080fd5b5050820193919092039150565b601f8211156125d557806000526020600020601f840160051c810160208510156125c35750805b611885601f850160051c8301826125da565b505050565b5b81811015610e7357600081556001016125db565b7fffffffff00000000000000000000000000000000000000000000000000000000813581811691600485101561262f5780818660040360031b1b83161692505b505092915050565b6801000000000000000083111561265057612650612893565b8054838255808410156126e1577f7fffffffffffffffffffffffffffffffffffffffffffffffffffffffffffffff600181831181161561269257612692612867565b8186118116156126a4576126a4612867565b60008481526020812090925086821b81019084831b015b808210156126dc578382556126d18383016128a9565b6002820191506126bb565b505050505b5060008181526020812083915b8581101561271f5761270961270384876124ae565b83612b29565b60209290920191600291909101906001016126ee565b505050505050565b67ffffffffffffffff83111561273f5761273f612893565b6127538361274d8354612817565b8361259c565b6000601f841160018114612787576000851561276f5750838201355b600019600387901b1c1916600186901b178355611885565b600083815260209020601f19861690835b828110156127b85786850135825560209485019460019092019101612798565b50868210156127d55760001960f88860031b161c19848701351681555b505060018560011b0183555050505050565b60005b838110156128025781810151838201526020016127ea565b83811115612811576000848401525b50505050565b600181811c9082168061282b57607f821691505b60208210811415611bc757634e487b7160e01b600052602260045260246000fd5b600060001982141561286057612860612867565b5060010190565b634e487b7160e01b600052601160045260246000fd5b634e487b7160e01b600052603260045260246000fd5b634e487b7160e01b600052604160045260246000fd5b8054600082558015610e73578160005260206000206125d56007830160031c8201826125da565b680100000000000000008211156128e9576128e9612893565b8054828255808310156125d5578160005260206000206007840160031c8101601c8560021b16801561292c576000198083018054828460200360031b1c16815550505b506118856007840160031c8301826125da565b813561294a81612be5565b6001600160a01b03811673ffffffffffffffffffffffffffffffffffffffff1983541617825550600180820160208085013560be1986360301811261298e57600080fd5b850161299a8180612451565b67ffffffffffffffff8111156129b2576129b2612893565b6129c6816129c08754612817565b8761259c565b6000601f8211600181146129fa57600083156129e25750838201355b600019600385901b1c1916600184901b178755612a4f565b600087815260209020601f19841690835b82811015612a285786850135825593880193908a01908801612a0b565b5084821015612a455760001960f88660031b161c19848701351681555b50508783891b0187555b50505050612a5f82820182612451565b94509250612a71848460028801612727565b612a7e6040820182612451565b94509250612a90848460038801612727565b612a9d6060820182612451565b94509250612aaf848460048801612727565b612abc6080820182612451565b94509250612ace848460058801612727565b612adb60a0820182612451565b945092505050612aef828260068601612727565b5050612afe6040830183612400565b612b0c818360078601612637565b5050612b1b6060830183612451565b612811818360088601612727565b8135612b3481612be5565b6001600160a01b03811673ffffffffffffffffffffffffffffffffffffffff198354161782555060018082016020612b6e81860186612400565b612b7881856128d0565b60009384528284209380805b83811015612bd9578435612b9781612bfa565b875463ffffffff600385901b90811b801990921660e09390931c901b1617875593850193600490910190601c821115612bd257958701958291505b8701612b84565b50505050505050505050565b6001600160a01b0381168114610b6557600080fd5b7fffffffff0000000000000000000000000000000000000000000000000000000081168114610b6557600080fdfe416464726573733a206c6f772d6c6576656c2064656c65676174652063616c6c206661696c6564a26469706673582212207ca4e7fc885d66b5cd6c7679071760428ba5f8325ec869683486b5ad601c169164736f6c63430008060033",
  "linkReferences": {},
  "deployedLinkReferences": {}
}