{
  "_format": "hh-sol-artifact-1",
  "contractName": "Registry",
  "sourceName": "contracts/src/registry/Registry.sol",
  "abi": [
    {
      "anonymous": false,
      "inputs": [
        {
          "indexed": true,
          "internalType": "string",
          "name": "name",
          "type": "string"
        },
        {
          "indexed": true,
          "internalType": "contract DAO",
          "name": "dao",
          "type": "address"
        },
        {
          "indexed": true,
          "internalType": "address",
          "name": "creator",
          "type": "address"
        }
      ],
      "name": "NewDAO",
      "type": "event"
    },
    {
      "inputs": [
        {
          "internalType": "string",
          "name": "",
          "type": "string"
        }
      ],
      "name": "daos",
      "outputs": [
        {
          "internalType": "contract DAO",
          "name": "",
          "type": "address"
        }
      ],
      "stateMutability": "view",
      "type": "function"
    },
    {
      "inputs": [
        {
          "internalType": "string",
          "name": "name",
          "type": "string"
        },
        {
          "internalType": "contract DAO",
          "name": "dao",
          "type": "address"
        }
      ],
      "name": "register",
      "outputs": [],
      "stateMutability": "nonpayable",
      "type": "function"
    }
  ],
  "bytecode": "0x608060405234801561001057600080fd5b506103ff806100206000396000f3fe608060405234801561001057600080fd5b50600436106100365760003560e01c80631e59c5291461003b578063e12ea8ba14610050575b600080fd5b61004e61004936600461021f565b6100ba565b005b61009161005e3660046102bb565b805160208183018101805160008252928201919093012091525473ffffffffffffffffffffffffffffffffffffffff1681565b60405173ffffffffffffffffffffffffffffffffffffffff909116815260200160405180910390f35b600073ffffffffffffffffffffffffffffffffffffffff16600084846040516100e492919061038a565b9081526040519081900360200190205473ffffffffffffffffffffffffffffffffffffffff1614610175576040517f08c379a000000000000000000000000000000000000000000000000000000000815260206004820152601c60248201527f54686973206e616d6520697320616c726561647920696e207573652100000000604482015260640160405180910390fd5b806000848460405161018892919061038a565b908152604051908190036020018120805473ffffffffffffffffffffffffffffffffffffffff9384167fffffffffffffffffffffffff000000000000000000000000000000000000000090911617905533918316906101ea908690869061038a565b604051908190038120907fedece6a3c84c1a06e65e12f6b29d6d3aed0c9746b902f3494a55c13ee38576ef90600090a4505050565b60008060006040848603121561023457600080fd5b833567ffffffffffffffff8082111561024c57600080fd5b818601915086601f83011261026057600080fd5b81358181111561026f57600080fd5b87602082850101111561028157600080fd5b6020928301955093505084013573ffffffffffffffffffffffffffffffffffffffff811681146102b057600080fd5b809150509250925092565b6000602082840312156102cd57600080fd5b813567ffffffffffffffff808211156102e557600080fd5b818401915084601f8301126102f957600080fd5b81358181111561030b5761030b61039a565b604051601f82017fffffffffffffffffffffffffffffffffffffffffffffffffffffffffffffffe0908116603f011681019083821181831017156103515761035161039a565b8160405282815287602084870101111561036a57600080fd5b826020860160208301376000928101602001929092525095945050505050565b8183823760009101908152919050565b7f4e487b7100000000000000000000000000000000000000000000000000000000600052604160045260246000fdfea2646970667358221220a9508bcd8c0b3285802f679dae26d34e04182d907d5632880507cf396f3bf68064736f6c63430008060033",
  "linkReferences": {},
  "deployedLinkReferences": {}
}