{
  "_format": "hh-sol-artifact-1",
  "contractName": "SimpleVoting",
  "sourceName": "contracts/src/governance-primitives/voting/SimpleVoting.sol",
  "abi": [
    {
      "inputs": [],
      "stateMutability": "nonpayable",
      "type": "constructor"
    },
    {
      "anonymous": false,
      "inputs": [
        {
          "indexed": false,
          "internalType": "address",
          "name": "previousAdmin",
          "type": "address"
        },
        {
          "indexed": false,
          "internalType": "address",
          "name": "newAdmin",
          "type": "address"
        }
      ],
      "name": "AdminChanged",
      "type": "event"
    },
    {
      "anonymous": false,
      "inputs": [
        {
          "indexed": true,
          "internalType": "address",
          "name": "beacon",
          "type": "address"
        }
      ],
      "name": "BeaconUpgraded",
      "type": "event"
    },
    {
      "anonymous": false,
      "inputs": [
        {
          "indexed": true,
          "internalType": "uint256",
          "name": "voteId",
          "type": "uint256"
        },
        {
          "indexed": true,
          "internalType": "address",
          "name": "voter",
          "type": "address"
        },
        {
          "indexed": false,
          "internalType": "bool",
          "name": "voterSupports",
          "type": "bool"
        },
        {
          "indexed": false,
          "internalType": "uint256",
          "name": "stake",
          "type": "uint256"
        }
      ],
      "name": "CastVote",
      "type": "event"
    },
    {
      "anonymous": false,
      "inputs": [
        {
          "indexed": false,
          "internalType": "uint64",
          "name": "minAcceptQuorumPct",
          "type": "uint64"
        }
      ],
      "name": "ChangeMinQuorum",
      "type": "event"
    },
    {
      "anonymous": false,
      "inputs": [
        {
          "indexed": false,
          "internalType": "uint64",
          "name": "supportRequiredPct",
          "type": "uint64"
        }
      ],
      "name": "ChangeSupportRequired",
      "type": "event"
    },
    {
      "anonymous": false,
      "inputs": [
        {
          "indexed": true,
          "internalType": "uint256",
          "name": "voteId",
          "type": "uint256"
        }
      ],
      "name": "ExecuteVote",
      "type": "event"
    },
    {
      "anonymous": false,
      "inputs": [
        {
          "components": [
            {
              "internalType": "uint256",
              "name": "id",
              "type": "uint256"
            },
            {
              "components": [
                {
                  "internalType": "contract GovernancePrimitive",
                  "name": "governancePrimitive",
                  "type": "address"
                },
                {
                  "components": [
                    {
                      "internalType": "string",
                      "name": "start",
                      "type": "string"
                    },
                    {
                      "internalType": "string",
                      "name": "execute",
                      "type": "string"
                    },
                    {
                      "internalType": "string",
                      "name": "halt",
                      "type": "string"
                    },
                    {
                      "internalType": "string",
                      "name": "forward",
                      "type": "string"
                    },
                    {
                      "internalType": "string",
                      "name": "stop",
                      "type": "string"
                    },
                    {
                      "internalType": "string",
                      "name": "vote",
                      "type": "string"
                    }
                  ],
                  "internalType": "struct Permissions.GovernancePrimitivePermissions",
                  "name": "permissions",
                  "type": "tuple"
                },
                {
                  "components": [
                    {
                      "internalType": "address",
                      "name": "to",
                      "type": "address"
                    },
                    {
                      "internalType": "bytes4[]",
                      "name": "methods",
                      "type": "bytes4[]"
                    }
                  ],
                  "internalType": "struct Processes.AllowedActions[]",
                  "name": "allowedActions",
                  "type": "tuple[]"
                },
                {
                  "internalType": "bytes",
                  "name": "metadata",
                  "type": "bytes"
                }
              ],
              "internalType": "struct Processes.Process",
              "name": "process",
              "type": "tuple"
            },
            {
              "components": [
                {
                  "internalType": "string",
                  "name": "processName",
                  "type": "string"
                },
                {
                  "components": [
                    {
                      "internalType": "address",
                      "name": "to",
                      "type": "address"
                    },
                    {
                      "internalType": "uint256",
                      "name": "value",
                      "type": "uint256"
                    },
                    {
                      "internalType": "bytes",
                      "name": "data",
                      "type": "bytes"
                    }
                  ],
                  "internalType": "struct Executor.Action[]",
                  "name": "actions",
                  "type": "tuple[]"
                },
                {
                  "internalType": "bytes",
                  "name": "metadata",
                  "type": "bytes"
                },
                {
                  "internalType": "bytes",
                  "name": "additionalArguments",
                  "type": "bytes"
                }
              ],
              "internalType": "struct GovernancePrimitive.Proposal",
              "name": "proposal",
              "type": "tuple"
            },
            {
              "internalType": "enum GovernancePrimitive.State",
              "name": "state",
              "type": "uint8"
            }
          ],
          "indexed": true,
          "internalType": "struct GovernancePrimitive.Execution",
          "name": "execution",
          "type": "tuple"
        },
        {
          "indexed": true,
          "internalType": "uint256",
          "name": "executionId",
          "type": "uint256"
        }
      ],
      "name": "GovernancePrimitiveExecuted",
      "type": "event"
    },
    {
      "anonymous": false,
      "inputs": [
        {
          "components": [
            {
              "internalType": "uint256",
              "name": "id",
              "type": "uint256"
            },
            {
              "components": [
                {
                  "internalType": "contract GovernancePrimitive",
                  "name": "governancePrimitive",
                  "type": "address"
                },
                {
                  "components": [
                    {
                      "internalType": "string",
                      "name": "start",
                      "type": "string"
                    },
                    {
                      "internalType": "string",
                      "name": "execute",
                      "type": "string"
                    },
                    {
                      "internalType": "string",
                      "name": "halt",
                      "type": "string"
                    },
                    {
                      "internalType": "string",
                      "name": "forward",
                      "type": "string"
                    },
                    {
                      "internalType": "string",
                      "name": "stop",
                      "type": "string"
                    },
                    {
                      "internalType": "string",
                      "name": "vote",
                      "type": "string"
                    }
                  ],
                  "internalType": "struct Permissions.GovernancePrimitivePermissions",
                  "name": "permissions",
                  "type": "tuple"
                },
                {
                  "components": [
                    {
                      "internalType": "address",
                      "name": "to",
                      "type": "address"
                    },
                    {
                      "internalType": "bytes4[]",
                      "name": "methods",
                      "type": "bytes4[]"
                    }
                  ],
                  "internalType": "struct Processes.AllowedActions[]",
                  "name": "allowedActions",
                  "type": "tuple[]"
                },
                {
                  "internalType": "bytes",
                  "name": "metadata",
                  "type": "bytes"
                }
              ],
              "internalType": "struct Processes.Process",
              "name": "process",
              "type": "tuple"
            },
            {
              "components": [
                {
                  "internalType": "string",
                  "name": "processName",
                  "type": "string"
                },
                {
                  "components": [
                    {
                      "internalType": "address",
                      "name": "to",
                      "type": "address"
                    },
                    {
                      "internalType": "uint256",
                      "name": "value",
                      "type": "uint256"
                    },
                    {
                      "internalType": "bytes",
                      "name": "data",
                      "type": "bytes"
                    }
                  ],
                  "internalType": "struct Executor.Action[]",
                  "name": "actions",
                  "type": "tuple[]"
                },
                {
                  "internalType": "bytes",
                  "name": "metadata",
                  "type": "bytes"
                },
                {
                  "internalType": "bytes",
                  "name": "additionalArguments",
                  "type": "bytes"
                }
              ],
              "internalType": "struct GovernancePrimitive.Proposal",
              "name": "proposal",
              "type": "tuple"
            },
            {
              "internalType": "enum GovernancePrimitive.State",
              "name": "state",
              "type": "uint8"
            }
          ],
          "indexed": true,
          "internalType": "struct GovernancePrimitive.Execution",
          "name": "execution",
          "type": "tuple"
        },
        {
          "indexed": true,
          "internalType": "uint256",
          "name": "executionId",
          "type": "uint256"
        }
      ],
      "name": "GovernancePrimitiveStarted",
      "type": "event"
    },
    {
      "anonymous": false,
      "inputs": [
        {
          "indexed": true,
          "internalType": "uint256",
          "name": "voteId",
          "type": "uint256"
        },
        {
          "indexed": true,
          "internalType": "address",
          "name": "creator",
          "type": "address"
        },
        {
          "indexed": false,
          "internalType": "string",
          "name": "description",
          "type": "string"
        }
      ],
      "name": "StartVote",
      "type": "event"
    },
    {
      "anonymous": false,
      "inputs": [
        {
          "indexed": true,
          "internalType": "address",
          "name": "implementation",
          "type": "address"
        }
      ],
      "name": "Upgraded",
      "type": "event"
    },
    {
      "anonymous": false,
      "inputs": [
        {
          "components": [
            {
              "internalType": "uint256",
              "name": "id",
              "type": "uint256"
            },
            {
              "components": [
                {
                  "internalType": "contract GovernancePrimitive",
                  "name": "governancePrimitive",
                  "type": "address"
                },
                {
                  "components": [
                    {
                      "internalType": "string",
                      "name": "start",
                      "type": "string"
                    },
                    {
                      "internalType": "string",
                      "name": "execute",
                      "type": "string"
                    },
                    {
                      "internalType": "string",
                      "name": "halt",
                      "type": "string"
                    },
                    {
                      "internalType": "string",
                      "name": "forward",
                      "type": "string"
                    },
                    {
                      "internalType": "string",
                      "name": "stop",
                      "type": "string"
                    },
                    {
                      "internalType": "string",
                      "name": "vote",
                      "type": "string"
                    }
                  ],
                  "internalType": "struct Permissions.GovernancePrimitivePermissions",
                  "name": "permissions",
                  "type": "tuple"
                },
                {
                  "components": [
                    {
                      "internalType": "address",
                      "name": "to",
                      "type": "address"
                    },
                    {
                      "internalType": "bytes4[]",
                      "name": "methods",
                      "type": "bytes4[]"
                    }
                  ],
                  "internalType": "struct Processes.AllowedActions[]",
                  "name": "allowedActions",
                  "type": "tuple[]"
                },
                {
                  "internalType": "bytes",
                  "name": "metadata",
                  "type": "bytes"
                }
              ],
              "internalType": "struct Processes.Process",
              "name": "process",
              "type": "tuple"
            },
            {
              "components": [
                {
                  "internalType": "string",
                  "name": "processName",
                  "type": "string"
                },
                {
                  "components": [
                    {
                      "internalType": "address",
                      "name": "to",
                      "type": "address"
                    },
                    {
                      "internalType": "uint256",
                      "name": "value",
                      "type": "uint256"
                    },
                    {
                      "internalType": "bytes",
                      "name": "data",
                      "type": "bytes"
                    }
                  ],
                  "internalType": "struct Executor.Action[]",
                  "name": "actions",
                  "type": "tuple[]"
                },
                {
                  "internalType": "bytes",
                  "name": "metadata",
                  "type": "bytes"
                },
                {
                  "internalType": "bytes",
                  "name": "additionalArguments",
                  "type": "bytes"
                }
              ],
              "internalType": "struct GovernancePrimitive.Proposal",
              "name": "proposal",
              "type": "tuple"
            },
            {
              "internalType": "enum GovernancePrimitive.State",
              "name": "state",
              "type": "uint8"
            }
          ],
          "indexed": true,
          "internalType": "struct GovernancePrimitive.Execution",
          "name": "execution",
          "type": "tuple"
        },
        {
          "indexed": true,
          "internalType": "bytes",
          "name": "data",
          "type": "bytes"
        },
        {
          "indexed": false,
          "internalType": "uint256",
          "name": "executionId",
          "type": "uint256"
        }
      ],
      "name": "VotedOnGovernancePrimitive",
      "type": "event"
    },
    {
      "inputs": [],
      "name": "CREATE_PRIMITIVE_START_ROLE",
      "outputs": [
        {
          "internalType": "bytes32",
          "name": "",
          "type": "bytes32"
        }
      ],
      "stateMutability": "view",
      "type": "function"
    },
    {
      "inputs": [],
      "name": "MODIFY_QUORUM_ROLE",
      "outputs": [
        {
          "internalType": "bytes32",
          "name": "",
          "type": "bytes32"
        }
      ],
      "stateMutability": "view",
      "type": "function"
    },
    {
      "inputs": [],
      "name": "MODIFY_SUPPORT_ROLE",
      "outputs": [
        {
          "internalType": "bytes32",
          "name": "",
          "type": "bytes32"
        }
      ],
      "stateMutability": "view",
      "type": "function"
    },
    {
      "inputs": [],
      "name": "PCT_BASE",
      "outputs": [
        {
          "internalType": "uint64",
          "name": "",
          "type": "uint64"
        }
      ],
      "stateMutability": "view",
      "type": "function"
    },
    {
      "inputs": [],
      "name": "PRIMITIVE_EXECUTE_ROLE",
      "outputs": [
        {
          "internalType": "bytes32",
          "name": "",
          "type": "bytes32"
        }
      ],
      "stateMutability": "view",
      "type": "function"
    },
    {
      "inputs": [],
      "name": "UPGRADE_ROLE",
      "outputs": [
        {
          "internalType": "bytes32",
          "name": "",
          "type": "bytes32"
        }
      ],
      "stateMutability": "view",
      "type": "function"
    },
    {
      "inputs": [
        {
          "internalType": "uint256",
          "name": "_voteId",
          "type": "uint256"
        },
        {
          "internalType": "address",
          "name": "_voter",
          "type": "address"
        }
      ],
      "name": "canVote",
      "outputs": [
        {
          "internalType": "bool",
          "name": "",
          "type": "bool"
        }
      ],
      "stateMutability": "view",
      "type": "function"
    },
    {
      "inputs": [
        {
          "internalType": "uint64",
          "name": "_minAcceptQuorumPct",
          "type": "uint64"
        }
      ],
      "name": "changeMinAcceptQuorumPct",
      "outputs": [],
      "stateMutability": "nonpayable",
      "type": "function"
    },
    {
      "inputs": [
        {
          "internalType": "uint64",
          "name": "_supportRequiredPct",
          "type": "uint64"
        }
      ],
      "name": "changeSupportRequiredPct",
      "outputs": [],
      "stateMutability": "nonpayable",
      "type": "function"
    },
    {
      "inputs": [
        {
          "internalType": "uint256",
          "name": "executionId",
          "type": "uint256"
        }
      ],
      "name": "execute",
      "outputs": [],
      "stateMutability": "nonpayable",
      "type": "function"
    },
    {
      "inputs": [
        {
          "internalType": "uint256",
          "name": "_voteId",
          "type": "uint256"
        }
      ],
      "name": "getVote",
      "outputs": [
        {
          "internalType": "bool",
          "name": "open",
          "type": "bool"
        },
        {
          "internalType": "bool",
          "name": "executed",
          "type": "bool"
        },
        {
          "internalType": "uint256",
          "name": "startDate",
          "type": "uint256"
        },
        {
          "internalType": "uint256",
          "name": "snapshotBlock",
          "type": "uint256"
        },
        {
          "internalType": "uint64",
          "name": "supportRequired",
          "type": "uint64"
        },
        {
          "internalType": "uint64",
          "name": "minAcceptQuorum",
          "type": "uint64"
        },
        {
          "internalType": "uint256",
          "name": "yea",
          "type": "uint256"
        },
        {
          "internalType": "uint256",
          "name": "nay",
          "type": "uint256"
        },
        {
          "internalType": "uint256",
          "name": "votingPower",
          "type": "uint256"
        },
        {
          "components": [
            {
              "internalType": "address",
              "name": "to",
              "type": "address"
            },
            {
              "internalType": "uint256",
              "name": "value",
              "type": "uint256"
            },
            {
              "internalType": "bytes",
              "name": "data",
              "type": "bytes"
            }
          ],
          "internalType": "struct Executor.Action[]",
          "name": "actions",
          "type": "tuple[]"
        }
      ],
      "stateMutability": "view",
      "type": "function"
    },
    {
      "inputs": [
        {
          "internalType": "uint256",
          "name": "_voteId",
          "type": "uint256"
        },
        {
          "internalType": "address",
          "name": "_voter",
          "type": "address"
        }
      ],
      "name": "getVoterState",
      "outputs": [
        {
          "internalType": "enum SimpleVoting.VoterState",
          "name": "",
          "type": "uint8"
        }
      ],
      "stateMutability": "view",
      "type": "function"
    },
    {
      "inputs": [
        {
          "internalType": "contract DAO",
          "name": "_dao",
          "type": "address"
        }
      ],
      "name": "initialize",
      "outputs": [],
      "stateMutability": "nonpayable",
      "type": "function"
    },
    {
      "inputs": [
        {
          "internalType": "contract DAO",
          "name": "_dao",
          "type": "address"
        },
        {
          "internalType": "contract ERC20VotesUpgradeable",
          "name": "_token",
          "type": "address"
        },
        {
          "internalType": "uint64[3]",
          "name": "_voteSettings",
          "type": "uint64[3]"
        }
      ],
      "name": "initialize",
      "outputs": [],
      "stateMutability": "nonpayable",
      "type": "function"
    },
    {
      "inputs": [],
      "name": "minAcceptQuorumPct",
      "outputs": [
        {
          "internalType": "uint64",
          "name": "",
          "type": "uint64"
        }
      ],
      "stateMutability": "view",
      "type": "function"
    },
    {
      "inputs": [
        {
          "components": [
            {
              "internalType": "contract GovernancePrimitive",
              "name": "governancePrimitive",
              "type": "address"
            },
            {
              "components": [
                {
                  "internalType": "string",
                  "name": "start",
                  "type": "string"
                },
                {
                  "internalType": "string",
                  "name": "execute",
                  "type": "string"
                },
                {
                  "internalType": "string",
                  "name": "halt",
                  "type": "string"
                },
                {
                  "internalType": "string",
                  "name": "forward",
                  "type": "string"
                },
                {
                  "internalType": "string",
                  "name": "stop",
                  "type": "string"
                },
                {
                  "internalType": "string",
                  "name": "vote",
                  "type": "string"
                }
              ],
              "internalType": "struct Permissions.GovernancePrimitivePermissions",
              "name": "permissions",
              "type": "tuple"
            },
            {
              "components": [
                {
                  "internalType": "address",
                  "name": "to",
                  "type": "address"
                },
                {
                  "internalType": "bytes4[]",
                  "name": "methods",
                  "type": "bytes4[]"
                }
              ],
              "internalType": "struct Processes.AllowedActions[]",
              "name": "allowedActions",
              "type": "tuple[]"
            },
            {
              "internalType": "bytes",
              "name": "metadata",
              "type": "bytes"
            }
          ],
          "internalType": "struct Processes.Process",
          "name": "process",
          "type": "tuple"
        },
        {
          "components": [
            {
              "internalType": "string",
              "name": "processName",
              "type": "string"
            },
            {
              "components": [
                {
                  "internalType": "address",
                  "name": "to",
                  "type": "address"
                },
                {
                  "internalType": "uint256",
                  "name": "value",
                  "type": "uint256"
                },
                {
                  "internalType": "bytes",
                  "name": "data",
                  "type": "bytes"
                }
              ],
              "internalType": "struct Executor.Action[]",
              "name": "actions",
              "type": "tuple[]"
            },
            {
              "internalType": "bytes",
              "name": "metadata",
              "type": "bytes"
            },
            {
              "internalType": "bytes",
              "name": "additionalArguments",
              "type": "bytes"
            }
          ],
          "internalType": "struct GovernancePrimitive.Proposal",
          "name": "proposal",
          "type": "tuple"
        }
      ],
      "name": "start",
      "outputs": [
        {
          "internalType": "uint256",
          "name": "executionId",
          "type": "uint256"
        }
      ],
      "stateMutability": "nonpayable",
      "type": "function"
    },
    {
      "inputs": [],
      "name": "supportRequiredPct",
      "outputs": [
        {
          "internalType": "uint64",
          "name": "",
          "type": "uint64"
        }
      ],
      "stateMutability": "view",
      "type": "function"
    },
    {
      "inputs": [],
      "name": "token",
      "outputs": [
        {
          "internalType": "contract ERC20VotesUpgradeable",
          "name": "",
          "type": "address"
        }
      ],
      "stateMutability": "view",
      "type": "function"
    },
    {
      "inputs": [
        {
          "internalType": "address",
          "name": "newImplementation",
          "type": "address"
        }
      ],
      "name": "upgradeTo",
      "outputs": [],
      "stateMutability": "nonpayable",
      "type": "function"
    },
    {
      "inputs": [
        {
          "internalType": "address",
          "name": "newImplementation",
          "type": "address"
        },
        {
          "internalType": "bytes",
          "name": "data",
          "type": "bytes"
        }
      ],
      "name": "upgradeToAndCall",
      "outputs": [],
      "stateMutability": "payable",
      "type": "function"
    },
    {
      "inputs": [
        {
          "internalType": "uint256",
          "name": "executionId",
          "type": "uint256"
        },
        {
          "internalType": "bytes",
          "name": "data",
          "type": "bytes"
        }
      ],
      "name": "vote",
      "outputs": [],
      "stateMutability": "nonpayable",
      "type": "function"
    },
    {
      "inputs": [],
      "name": "voteTime",
      "outputs": [
        {
          "internalType": "uint64",
          "name": "",
          "type": "uint64"
        }
      ],
      "stateMutability": "view",
      "type": "function"
    },
    {
      "inputs": [],
      "name": "votesLength",
      "outputs": [
        {
          "internalType": "uint256",
          "name": "",
          "type": "uint256"
        }
      ],
      "stateMutability": "view",
      "type": "function"
    }
  ],
  "bytecode": "0x60a06040523060601b6080523480156200001857600080fd5b50600354610100900460ff168062000033575060035460ff16155b6200009b5760405162461bcd60e51b815260206004820152602e60248201527f496e697469616c697a61626c653a20636f6e747261637420697320616c72656160448201526d191e481a5b9a5d1a585b1a5e995960921b606482015260840160405180910390fd5b600354610100900460ff16158015620000be576003805461ffff19166101011790555b8015620000d1576003805461ff00191690555b5060805160601c615851620001066000396000818161057f0152818161061a015281816107b0015261084601526158516000f3fe6080604052600436106101805760003560e01c8063b88b82ba116100d6578063de4f63471161007f578063fc157cb411610059578063fc157cb414610518578063fc2017f014610534578063fe0d94c11461055457600080fd5b8063de4f6347146104a9578063fad167ab146104bf578063fc0c546a146104e057600080fd5b8063c4d66de8116100b0578063c4d66de814610402578063cdb2867b1461044c578063dc474b1a1461047c57600080fd5b8063b88b82ba14610360578063b908afa814610380578063bcf93dd6146103b457600080fd5b80635a55c1f0116101385780636929279e116101125780636929279e146102ec5780637c1d0b871461030c57806397c4d9721461032c57600080fd5b80635a55c1f0146102625780635eb243321461029857806362de7e5a146102b857600080fd5b8063495b77f211610169578063495b77f2146101ee5780634b12311c146102225780634f1ef2861461024f57600080fd5b80633659cfe6146101855780633c624c75146101a7575b600080fd5b34801561019157600080fd5b506101a56101a03660046140de565b610574565b005b3480156101b357600080fd5b506101db7fad15e7261800b4bb73f1b69d3864565ffb1fd00cb93cf14fe48da8f1f2149f3981565b6040519081526020015b60405180910390f35b3480156101fa57600080fd5b506101db7f10ea533fb3f353626ce96f5cd74c11a7c44d5e50bf74c880ccc6af91ed43dcec81565b34801561022e57600080fd5b5061024261023d36600461436a565b610717565b6040516101e59190614c18565b6101a561025d3660046140fb565b6107a5565b34801561026e57600080fd5b5061028261027d366004614338565b610934565b6040516101e59a99989796959493929190614b16565b3480156102a457600080fd5b506101a56102b336600461440b565b610b4c565b3480156102c457600080fd5b506101db7fda3972983e62bdf826c4b807c4c9c2b8a941e1f83dfa76d53d6aeac11e1be65081565b3480156102f857600080fd5b506101db6103073660046142d4565b610d14565b34801561031857600080fd5b506101a561032736600461440b565b6117f2565b34801561033857600080fd5b506101db7f0dd1a2559ec1ba5739c3e5a8976d1ea74abd2520c1fcc1cf5c99cd6a6b700ab381565b34801561036c57600080fd5b506101a561037b36600461438f565b6119ff565b34801561038c57600080fd5b506101db7f88aa719609f728b0c5e7fb8dd3608d5c25d497efbb3b9dd64e9251ebba10150881565b3480156103c057600080fd5b506006546103e990700100000000000000000000000000000000900467ffffffffffffffff1681565b60405167ffffffffffffffff90911681526020016101e5565b34801561040e57600080fd5b506101a561041d3660046140de565b6000805473ffffffffffffffffffffffffffffffffffffffff19166001600160a01b0392909216919091179055565b34801561045857600080fd5b5061046c61046736600461436a565b61249a565b60405190151581526020016101e5565b34801561048857600080fd5b506006546103e99068010000000000000000900467ffffffffffffffff1681565b3480156104b557600080fd5b506101db60055481565b3480156104cb57600080fd5b506006546103e99067ffffffffffffffff1681565b3480156104ec57600080fd5b50600754610500906001600160a01b031681565b6040516001600160a01b0390911681526020016101e5565b34801561052457600080fd5b506103e9670de0b6b3a764000081565b34801561054057600080fd5b506101a561054f3660046141e4565b612509565b34801561056057600080fd5b506101a561056f366004614338565b61283c565b306001600160a01b037f00000000000000000000000000000000000000000000000000000000000000001614156106185760405162461bcd60e51b815260206004820152602c60248201527f46756e6374696f6e206d7573742062652063616c6c6564207468726f7567682060448201527f64656c656761746563616c6c000000000000000000000000000000000000000060648201526084015b60405180910390fd5b7f00000000000000000000000000000000000000000000000000000000000000006001600160a01b03166106737f360894a13ba1a3210667c828492db98dca3e2076cc3735a920a3ca505d382bbc546001600160a01b031690565b6001600160a01b0316146106ef5760405162461bcd60e51b815260206004820152602c60248201527f46756e6374696f6e206d7573742062652063616c6c6564207468726f7567682060448201527f6163746976652070726f78790000000000000000000000000000000000000000606482015260840161060f565b6106f881613424565b6040805160008082526020820190925261071491839190613508565b50565b60008260015481106040518060400160405280601281526020017f4552524f525f4e4f5f455845435554494f4e0000000000000000000000000000815250906107735760405162461bcd60e51b815260040161060f9190614c61565b50505060009182526004602090815260408084206001600160a01b039390931684526006909201905290205460ff1690565b306001600160a01b037f00000000000000000000000000000000000000000000000000000000000000001614156108445760405162461bcd60e51b815260206004820152602c60248201527f46756e6374696f6e206d7573742062652063616c6c6564207468726f7567682060448201527f64656c656761746563616c6c0000000000000000000000000000000000000000606482015260840161060f565b7f00000000000000000000000000000000000000000000000000000000000000006001600160a01b031661089f7f360894a13ba1a3210667c828492db98dca3e2076cc3735a920a3ca505d382bbc546001600160a01b031690565b6001600160a01b03161461091b5760405162461bcd60e51b815260206004820152602c60248201527f46756e6374696f6e206d7573742062652063616c6c6564207468726f7567682060448201527f6163746976652070726f78790000000000000000000000000000000000000000606482015260840161060f565b61092482613424565b61093082826001613508565b5050565b600080600080600080600080600060608a60015481106040518060400160405280601281526020017f4552524f525f4e4f5f455845435554494f4e00000000000000000000000000008152509061099e5760405162461bcd60e51b815260040161060f9190614c61565b5060008c81526004602052604090206109b7818e6136cc565b9b506109c28d613716565b9a5080600001549950806001015498508060020160009054906101000a900467ffffffffffffffff1697508060020160089054906101000a900467ffffffffffffffff169650806003015495508060040154945080600501549350610a328d600090815260026020526040902090565b600b0180546040805160208084028201810190925282815292919060009084015b82821015610b37576000848152602090819020604080516060810182526003860290920180546001600160a01b0316835260018101549383019390935260028301805492939291840191610aa6906151d1565b80601f0160208091040260200160405190810160405280929190818152602001828054610ad2906151d1565b8015610b1f5780601f10610af457610100808354040283529160200191610b1f565b820191906000526020600020905b815481529060010190602001808311610b0257829003601f168201915b50505050508152505081526020019060010190610a53565b50505050925050509193959799509193959799565b600054604051630dace25b60e31b81523060048201523360248201527fad15e7261800b4bb73f1b69d3864565ffb1fd00cb93cf14fe48da8f1f2149f3960448201819052916001600160a01b031690636d6712d890606401602060405180830381600087803b158015610bbe57600080fd5b505af1158015610bd2573d6000803e3d6000fd5b505050506040513d601f19601f82011682018060405250810190610bf6919061418e565b610c305760405162461bcd60e51b815260206004820152600b60248201526a617574683a20636865636b60a81b604482015260640161060f565b60065460408051808201909152601981527f564f54494e475f4348414e47455f51554f52554d5f504354530000000000000060208201529067ffffffffffffffff9081169084161115610c965760405162461bcd60e51b815260040161060f9190614c61565b50600680547fffffffffffffffffffffffffffffffff0000000000000000ffffffffffffffff166801000000000000000067ffffffffffffffff8516908102919091179091556040519081527f3172f2e9273c729c2a47cc8bf7e7f18506e3e3035126d562602bd2155bc78a50906020015b60405180910390a15050565b60008054604051630dace25b60e31b81523060048201523360248201527f0dd1a2559ec1ba5739c3e5a8976d1ea74abd2520c1fcc1cf5c99cd6a6b700ab360448201819052916001600160a01b031690636d6712d890606401602060405180830381600087803b158015610d8757600080fd5b505af1158015610d9b573d6000803e3d6000fd5b505050506040513d601f19601f82011682018060405250810190610dbf919061418e565b610df95760405162461bcd60e51b815260206004820152600b60248201526a617574683a20636865636b60a81b604482015260640161060f565b6000546001600160a01b031663721da993610e176020870187614d87565b610e219080614cd8565b6040518363ffffffff1660e01b8152600401610e3e929190614c32565b60206040518083038186803b158015610e5657600080fd5b505afa158015610e6a573d6000803e3d6000fd5b505050506040513d601f19601f82011682018060405250810190610e8e919061418e565b6040518060400160405280601a81526020017f4552524f525f4e4f545f414c4c4f5745445f544f5f535441525400000000000081525090610ee25760405162461bcd60e51b815260040161060f9190614c61565b5060018054906000610ef383615206565b90915550506001805460008181526002602052604090209081559085908201610f1c82826152f9565b50849050600a8201610f2e82826154e3565b5050600e8101805460ff19169055604080516080808201835283548252825190810183526001840180546001600160a01b03168252835160c0810190945260028501805460009587946020808801959194919390850192919082908290610f94906151d1565b80601f0160208091040260200160405190810160405280929190818152602001828054610fc0906151d1565b801561100d5780601f10610fe25761010080835404028352916020019161100d565b820191906000526020600020905b815481529060010190602001808311610ff057829003601f168201915b50505050508152602001600182018054611026906151d1565b80601f0160208091040260200160405190810160405280929190818152602001828054611052906151d1565b801561109f5780601f106110745761010080835404028352916020019161109f565b820191906000526020600020905b81548152906001019060200180831161108257829003601f168201915b505050505081526020016002820180546110b8906151d1565b80601f01602080910402602001604051908101604052809291908181526020018280546110e4906151d1565b80156111315780601f1061110657610100808354040283529160200191611131565b820191906000526020600020905b81548152906001019060200180831161111457829003601f168201915b5050505050815260200160038201805461114a906151d1565b80601f0160208091040260200160405190810160405280929190818152602001828054611176906151d1565b80156111c35780601f10611198576101008083540402835291602001916111c3565b820191906000526020600020905b8154815290600101906020018083116111a657829003601f168201915b505050505081526020016004820180546111dc906151d1565b80601f0160208091040260200160405190810160405280929190818152602001828054611208906151d1565b80156112555780601f1061122a57610100808354040283529160200191611255565b820191906000526020600020905b81548152906001019060200180831161123857829003601f168201915b5050505050815260200160058201805461126e906151d1565b80601f016020809104026020016040519081016040528092919081815260200182805461129a906151d1565b80156112e75780601f106112bc576101008083540402835291602001916112e7565b820191906000526020600020905b8154815290600101906020018083116112ca57829003601f168201915b505050505081525050815260200160078201805480602002602001604051908101604052809291908181526020016000905b828210156113f05760008481526020908190206040805180820182526002860290920180546001600160a01b031683526001810180548351818702810187019094528084529394919385830193928301828280156113d857602002820191906000526020600020906000905b82829054906101000a900460e01b7bffffffffffffffffffffffffffffffffffffffffffffffffffffffff1916815260200190600401906020826003010492830192600103820291508084116113855790505b50505050508152505081526020019060010190611319565b505050508152602001600882018054611408906151d1565b80601f0160208091040260200160405190810160405280929190818152602001828054611434906151d1565b80156114815780601f1061145657610100808354040283529160200191611481565b820191906000526020600020905b81548152906001019060200180831161146457829003601f168201915b5050505050815250508152602001600a82016040518060800160405290816000820180546114ae906151d1565b80601f01602080910402602001604051908101604052809291908181526020018280546114da906151d1565b80156115275780601f106114fc57610100808354040283529160200191611527565b820191906000526020600020905b81548152906001019060200180831161150a57829003601f168201915b5050505050815260200160018201805480602002602001604051908101604052809291908181526020016000905b82821015611639576000848152602090819020604080516060810182526003860290920180546001600160a01b03168352600181015493830193909352600283018054929392918401916115a8906151d1565b80601f01602080910402602001604051908101604052809291908181526020018280546115d4906151d1565b80156116215780601f106115f657610100808354040283529160200191611621565b820191906000526020600020905b81548152906001019060200180831161160457829003601f168201915b50505050508152505081526020019060010190611555565b505050508152602001600282018054611651906151d1565b80601f016020809104026020016040519081016040528092919081815260200182805461167d906151d1565b80156116ca5780601f1061169f576101008083540402835291602001916116ca565b820191906000526020600020905b8154815290600101906020018083116116ad57829003601f168201915b505050505081526020016003820180546116e3906151d1565b80601f016020809104026020016040519081016040528092919081815260200182805461170f906151d1565b801561175c5780601f106117315761010080835404028352916020019161175c565b820191906000526020600020905b81548152906001019060200180831161173f57829003601f168201915b505050919092525050508152600e82015460209091019060ff16600381111561178757611787615237565b600381111561179857611798615237565b90525090506117a681613747565b83826040516117b591906147c7565b604051908190038120907f2f8139148d9020cbfdbdecc59d0cabb0f972109b744fc9eb0d41819a5de692ca90600090a35050600154949350505050565b600054604051630dace25b60e31b81523060048201523360248201527fda3972983e62bdf826c4b807c4c9c2b8a941e1f83dfa76d53d6aeac11e1be65060448201819052916001600160a01b031690636d6712d890606401602060405180830381600087803b15801561186457600080fd5b505af1158015611878573d6000803e3d6000fd5b505050506040513d601f19601f8201168201806040525081019061189c919061418e565b6118d65760405162461bcd60e51b815260206004820152600b60248201526a617574683a20636865636b60a81b604482015260640161060f565b60065460408051808201909152601a81527f564f54494e475f4348414e47455f535550504f52545f5043545300000000000060208201529067ffffffffffffffff808516680100000000000000009092041611156119475760405162461bcd60e51b815260040161060f9190614c61565b5060408051808201909152601a81527f564f54494e475f4348414e47455f535550505f544f4f5f4249470000000000006020820152670de0b6b3a764000067ffffffffffffffff8416106119ae5760405162461bcd60e51b815260040161060f9190614c61565b506006805467ffffffffffffffff191667ffffffffffffffff84169081179091556040519081527f903b617f7f36eb047a29b89d1bf7885fdae31d250c3320fccf11d045c11b396e90602001610d08565b8260015481106040518060400160405280601281526020017f4552524f525f4e4f5f455845435554494f4e000000000000000000000000000081525090611a595760405162461bcd60e51b815260040161060f9190614c61565b506000848152600260205260408120604080516080808201835283548252825190810183526001840180546001600160a01b03168252835160c08101909452600285018054939594602080880195908501929082908290611ab9906151d1565b80601f0160208091040260200160405190810160405280929190818152602001828054611ae5906151d1565b8015611b325780601f10611b0757610100808354040283529160200191611b32565b820191906000526020600020905b815481529060010190602001808311611b1557829003601f168201915b50505050508152602001600182018054611b4b906151d1565b80601f0160208091040260200160405190810160405280929190818152602001828054611b77906151d1565b8015611bc45780601f10611b9957610100808354040283529160200191611bc4565b820191906000526020600020905b815481529060010190602001808311611ba757829003601f168201915b50505050508152602001600282018054611bdd906151d1565b80601f0160208091040260200160405190810160405280929190818152602001828054611c09906151d1565b8015611c565780601f10611c2b57610100808354040283529160200191611c56565b820191906000526020600020905b815481529060010190602001808311611c3957829003601f168201915b50505050508152602001600382018054611c6f906151d1565b80601f0160208091040260200160405190810160405280929190818152602001828054611c9b906151d1565b8015611ce85780601f10611cbd57610100808354040283529160200191611ce8565b820191906000526020600020905b815481529060010190602001808311611ccb57829003601f168201915b50505050508152602001600482018054611d01906151d1565b80601f0160208091040260200160405190810160405280929190818152602001828054611d2d906151d1565b8015611d7a5780601f10611d4f57610100808354040283529160200191611d7a565b820191906000526020600020905b815481529060010190602001808311611d5d57829003601f168201915b50505050508152602001600582018054611d93906151d1565b80601f0160208091040260200160405190810160405280929190818152602001828054611dbf906151d1565b8015611e0c5780601f10611de157610100808354040283529160200191611e0c565b820191906000526020600020905b815481529060010190602001808311611def57829003601f168201915b505050505081525050815260200160078201805480602002602001604051908101604052809291908181526020016000905b82821015611f155760008481526020908190206040805180820182526002860290920180546001600160a01b03168352600181018054835181870281018701909452808452939491938583019392830182828015611efd57602002820191906000526020600020906000905b82829054906101000a900460e01b7bffffffffffffffffffffffffffffffffffffffffffffffffffffffff191681526020019060040190602082600301049283019260010382029150808411611eaa5790505b50505050508152505081526020019060010190611e3e565b505050508152602001600882018054611f2d906151d1565b80601f0160208091040260200160405190810160405280929190818152602001828054611f59906151d1565b8015611fa65780601f10611f7b57610100808354040283529160200191611fa6565b820191906000526020600020905b815481529060010190602001808311611f8957829003601f168201915b5050505050815250508152602001600a8201604051806080016040529081600082018054611fd3906151d1565b80601f0160208091040260200160405190810160405280929190818152602001828054611fff906151d1565b801561204c5780601f106120215761010080835404028352916020019161204c565b820191906000526020600020905b81548152906001019060200180831161202f57829003601f168201915b5050505050815260200160018201805480602002602001604051908101604052809291908181526020016000905b8282101561215e576000848152602090819020604080516060810182526003860290920180546001600160a01b03168352600181015493830193909352600283018054929392918401916120cd906151d1565b80601f01602080910402602001604051908101604052809291908181526020018280546120f9906151d1565b80156121465780601f1061211b57610100808354040283529160200191612146565b820191906000526020600020905b81548152906001019060200180831161212957829003601f168201915b5050505050815250508152602001906001019061207a565b505050508152602001600282018054612176906151d1565b80601f01602080910402602001604051908101604052809291908181526020018280546121a2906151d1565b80156121ef5780601f106121c4576101008083540402835291602001916121ef565b820191906000526020600020905b8154815290600101906020018083116121d257829003601f168201915b50505050508152602001600382018054612208906151d1565b80601f0160208091040260200160405190810160405280929190818152602001828054612234906151d1565b80156122815780601f1061225657610100808354040283529160200191612281565b820191906000526020600020905b81548152906001019060200180831161226457829003601f168201915b505050919092525050508152600e82015460209091019060ff1660038111156122ac576122ac615237565b60038111156122bd576122bd615237565b90525090506000816060015160038111156122da576122da615237565b146040518060400160405280601b81526020017f4552524f525f455845435554494f4e5f53544154455f57524f4e4700000000008152509061232f5760405162461bcd60e51b815260040161060f9190614c61565b50600054602080830151015160a001516040517f721da9930000000000000000000000000000000000000000000000000000000081526001600160a01b039092169163721da9939161238391600401614c61565b60206040518083038186803b15801561239b57600080fd5b505afa1580156123af573d6000803e3d6000fd5b505050506040513d601f19601f820116820180604052508101906123d3919061418e565b6040518060400160405280601b81526020017f4552524f525f455845435554494f4e5f53544154455f57524f4e470000000000815250906124275760405162461bcd60e51b815260040161060f9190614c61565b50612433858585613964565b8383604051612443929190614689565b60405180910390208160405161245991906146b5565b604051908190038120878252907f06e89ce73a1bc6704ed82216000e8a90716f2655dcaa98a517e60a7ccc814d3e9060200160405180910390a35050505050565b60008260015481106040518060400160405280601281526020017f4552524f525f4e4f5f455845435554494f4e0000000000000000000000000000815250906124f65760405162461bcd60e51b815260040161060f9190614c61565b5061250184846139e2565b949350505050565b600354610100900460ff1680612522575060035460ff16155b6125945760405162461bcd60e51b815260206004820152602e60248201527f496e697469616c697a61626c653a20636f6e747261637420697320616c72656160448201527f647920696e697469616c697a6564000000000000000000000000000000000000606482015260840161060f565b600354610100900460ff161580156125d357600380547fffffffffffffffffffffffffffffffffffffffffffffffffffffffffffff0000166101011790555b6007805473ffffffffffffffffffffffffffffffffffffffff19166001600160a01b03851617905561260b604083016020840161440b565b67ffffffffffffffff16612622602084018461440b565b67ffffffffffffffff1611156040518060400160405280601081526020017f564f54494e475f494e49545f5043545300000000000000000000000000000000815250906126825760405162461bcd60e51b815260040161060f9190614c61565b50670de0b6b3a764000061269c604084016020850161440b565b67ffffffffffffffff16106040518060400160405280601b81526020017f564f54494e475f494e49545f535550504f52545f544f4f5f4249470000000000815250906126fb5760405162461bcd60e51b815260040161060f9190614c61565b50612709602083018361440b565b6006805467ffffffffffffffff9290921668010000000000000000027fffffffffffffffffffffffffffffffff0000000000000000ffffffffffffffff90921691909117905561275f604083016020840161440b565b6006805467ffffffffffffffff191667ffffffffffffffff92909216919091179055612791606083016040840161440b565b6006805467ffffffffffffffff92909216700100000000000000000000000000000000027fffffffffffffffff0000000000000000ffffffffffffffffffffffffffffffff9092169190911790556000805473ffffffffffffffffffffffffffffffffffffffff19166001600160a01b038616179055801561283657600380547fffffffffffffffffffffffffffffffffffffffffffffffffffffffffffff00ff1690555b50505050565b8060015481106040518060400160405280601281526020017f4552524f525f4e4f5f455845435554494f4e0000000000000000000000000000815250906128965760405162461bcd60e51b815260040161060f9190614c61565b50600054604051630dace25b60e31b81523060048201523360248201527f10ea533fb3f353626ce96f5cd74c11a7c44d5e50bf74c880ccc6af91ed43dcec60448201819052916001600160a01b031690636d6712d890606401602060405180830381600087803b15801561290957600080fd5b505af115801561291d573d6000803e3d6000fd5b505050506040513d601f19601f82011682018060405250810190612941919061418e565b61297b5760405162461bcd60e51b815260206004820152600b60248201526a617574683a20636865636b60a81b604482015260640161060f565b600083815260026020526040812090506000600e82015460ff1660038111156129a6576129a6615237565b146040518060400160405280601b81526020017f4552524f525f455845435554494f4e5f53544154455f57524f4e470000000000815250906129fb5760405162461bcd60e51b815260040161060f9190614c61565b506000546040517f721da9930000000000000000000000000000000000000000000000000000000081526001600160a01b039091169063721da99390612a48906003850190600401614c74565b60206040518083038186803b158015612a6057600080fd5b505afa158015612a74573d6000803e3d6000fd5b505050506040513d601f19601f82011682018060405250810190612a98919061418e565b6040518060400160405280601c81526020017f4552524f525f4e4f545f414c4c4f5745445f544f5f455845435554450000000081525090612aec5760405162461bcd60e51b815260040161060f9190614c61565b50600e8101805460ff19166003179055604080516080808201835283548252825190810183526001840180546001600160a01b03168252835160c081019094526002850180546133619587946020808801959194919390850192919082908290612b55906151d1565b80601f0160208091040260200160405190810160405280929190818152602001828054612b81906151d1565b8015612bce5780601f10612ba357610100808354040283529160200191612bce565b820191906000526020600020905b815481529060010190602001808311612bb157829003601f168201915b50505050508152602001600182018054612be7906151d1565b80601f0160208091040260200160405190810160405280929190818152602001828054612c13906151d1565b8015612c605780601f10612c3557610100808354040283529160200191612c60565b820191906000526020600020905b815481529060010190602001808311612c4357829003601f168201915b50505050508152602001600282018054612c79906151d1565b80601f0160208091040260200160405190810160405280929190818152602001828054612ca5906151d1565b8015612cf25780601f10612cc757610100808354040283529160200191612cf2565b820191906000526020600020905b815481529060010190602001808311612cd557829003601f168201915b50505050508152602001600382018054612d0b906151d1565b80601f0160208091040260200160405190810160405280929190818152602001828054612d37906151d1565b8015612d845780601f10612d5957610100808354040283529160200191612d84565b820191906000526020600020905b815481529060010190602001808311612d6757829003601f168201915b50505050508152602001600482018054612d9d906151d1565b80601f0160208091040260200160405190810160405280929190818152602001828054612dc9906151d1565b8015612e165780601f10612deb57610100808354040283529160200191612e16565b820191906000526020600020905b815481529060010190602001808311612df957829003601f168201915b50505050508152602001600582018054612e2f906151d1565b80601f0160208091040260200160405190810160405280929190818152602001828054612e5b906151d1565b8015612ea85780601f10612e7d57610100808354040283529160200191612ea8565b820191906000526020600020905b815481529060010190602001808311612e8b57829003601f168201915b505050505081525050815260200160078201805480602002602001604051908101604052809291908181526020016000905b82821015612fb15760008481526020908190206040805180820182526002860290920180546001600160a01b03168352600181018054835181870281018701909452808452939491938583019392830182828015612f9957602002820191906000526020600020906000905b82829054906101000a900460e01b7bffffffffffffffffffffffffffffffffffffffffffffffffffffffff191681526020019060040190602082600301049283019260010382029150808411612f465790505b50505050508152505081526020019060010190612eda565b505050508152602001600882018054612fc9906151d1565b80601f0160208091040260200160405190810160405280929190818152602001828054612ff5906151d1565b80156130425780601f1061301757610100808354040283529160200191613042565b820191906000526020600020905b81548152906001019060200180831161302557829003601f168201915b5050505050815250508152602001600a820160405180608001604052908160008201805461306f906151d1565b80601f016020809104026020016040519081016040528092919081815260200182805461309b906151d1565b80156130e85780601f106130bd576101008083540402835291602001916130e8565b820191906000526020600020905b8154815290600101906020018083116130cb57829003601f168201915b5050505050815260200160018201805480602002602001604051908101604052809291908181526020016000905b828210156131fa576000848152602090819020604080516060810182526003860290920180546001600160a01b0316835260018101549383019390935260028301805492939291840191613169906151d1565b80601f0160208091040260200160405190810160405280929190818152602001828054613195906151d1565b80156131e25780601f106131b7576101008083540402835291602001916131e2565b820191906000526020600020905b8154815290600101906020018083116131c557829003601f168201915b50505050508152505081526020019060010190613116565b505050508152602001600282018054613212906151d1565b80601f016020809104026020016040519081016040528092919081815260200182805461323e906151d1565b801561328b5780601f106132605761010080835404028352916020019161328b565b820191906000526020600020905b81548152906001019060200180831161326e57829003601f168201915b505050505081526020016003820180546132a4906151d1565b80601f01602080910402602001604051908101604052809291908181526020018280546132d0906151d1565b801561331d5780601f106132f25761010080835404028352916020019161331d565b820191906000526020600020905b81548152906001019060200180831161330057829003601f168201915b505050919092525050508152600e82015460209091019060ff16600381111561334857613348615237565b600381111561335957613359615237565b905250613abd565b6000546040517f3f707e6b0000000000000000000000000000000000000000000000000000000081526001600160a01b0390911690633f707e6b906133ad90600b850190600401614a6b565b600060405180830381600087803b1580156133c757600080fd5b505af11580156133db573d6000803e3d6000fd5b5050505083816040516133ee91906147c7565b604051908190038120907f7d25af5a7aeb27ebf1529e2916d8744eeae9d43ebc07a7dbce6ad410582a807b90600090a350505050565b600054604051630dace25b60e31b81523060048201523360248201527f88aa719609f728b0c5e7fb8dd3608d5c25d497efbb3b9dd64e9251ebba10150860448201819052916001600160a01b031690636d6712d890606401602060405180830381600087803b15801561349657600080fd5b505af11580156134aa573d6000803e3d6000fd5b505050506040513d601f19601f820116820180604052508101906134ce919061418e565b6109305760405162461bcd60e51b815260206004820152600b60248201526a617574683a20636865636b60a81b604482015260640161060f565b600061353b7f360894a13ba1a3210667c828492db98dca3e2076cc3735a920a3ca505d382bbc546001600160a01b031690565b905061354684613b1c565b6000835111806135535750815b15613564576135628484613bde565b505b7f4910fdfa16fed3260ed0e7147f7cc6da11a60208b5b9406d12a635614ffd9143805460ff166136c557805460ff191660011781556040516001600160a01b038316602482015261361190869060440160408051601f198184030181529190526020810180517bffffffffffffffffffffffffffffffffffffffffffffffffffffffff167f3659cfe600000000000000000000000000000000000000000000000000000000179052613bde565b50805460ff191681557f360894a13ba1a3210667c828492db98dca3e2076cc3735a920a3ca505d382bbc546001600160a01b038381169116146136bc5760405162461bcd60e51b815260206004820152602f60248201527f45524331393637557067726164653a207570677261646520627265616b73206660448201527f7572746865722075706772616465730000000000000000000000000000000000606482015260840161060f565b6136c585613c03565b5050505050565b60065482546000916136fd9170010000000000000000000000000000000090910467ffffffffffffffff1690614df6565b4210801561370f575061370f82613716565b9392505050565b600060036000838152600260205260409020600e015460ff16600381111561374057613740615237565b1492915050565b60008060008360400151606001518060200190518101906137689190614233565b91945092509050600061377c600143614e4f565b6007546040517f8e539e8c000000000000000000000000000000000000000000000000000000008152600481018390529192506000916001600160a01b0390911690638e539e8c9060240160206040518083038186803b1580156137df57600080fd5b505afa1580156137f3573d6000803e3d6000fd5b505050506040513d601f19601f820116820180604052508101906138179190614351565b9050600081116040518060400160405280601681526020017f564f54494e475f4e4f5f564f54494e475f504f57455200000000000000000000815250906138715760405162461bcd60e51b815260040161060f9190614c61565b50855160008181526004602052604090819020428155600181018590556006805460028301805467ffffffffffffffff92831667ffffffffffffffff1982168117835593547fffffffffffffffffffffffffffffffff000000000000000000000000000000009091169093176801000000000000000093849004909216909202179055600581018490559051339083907f4d72fe0577a3a3f7da968d7b892779dde102519c25527b29cf7054f245c791b99061392e908b90614c61565b60405180910390a38480156139485750613948823361249a565b1561395a5761395a8260013389613c43565b5050505050505050565b600080613973838501856141ab565b9150915061398185336139e2565b6040518060400160405280601381526020017f564f54494e475f43414e5f4e4f545f564f544500000000000000000000000000815250906139d55760405162461bcd60e51b815260040161060f9190614c61565b506136c585833384613c43565b60008281526004602052604081206139fa81856136cc565b8015612501575060075460018201546040517f3a46b1a80000000000000000000000000000000000000000000000000000000081526000926001600160a01b031691633a46b1a891613a649188916004016001600160a01b03929092168252602082015260400190565b60206040518083038186803b158015613a7c57600080fd5b505afa158015613a90573d6000803e3d6000fd5b505050506040513d601f19601f82011682018060405250810190613ab49190614351565b11949350505050565b8051613ac890613e6c565b6040518060400160405280601681526020017f564f54494e475f43414e5f4e4f545f4558454355544500000000000000000000815250906109305760405162461bcd60e51b815260040161060f9190614c61565b803b613b905760405162461bcd60e51b815260206004820152602d60248201527f455243313936373a206e657720696d706c656d656e746174696f6e206973206e60448201527f6f74206120636f6e747261637400000000000000000000000000000000000000606482015260840161060f565b7f360894a13ba1a3210667c828492db98dca3e2076cc3735a920a3ca505d382bbc805473ffffffffffffffffffffffffffffffffffffffff19166001600160a01b0392909216919091179055565b606061370f83836040518060600160405280602781526020016157f560279139613f69565b613c0c81613b1c565b6040516001600160a01b038216907fbc7cd75a20ee27fd9adebab32041f755214dbc6bffa90cc0225b39da2e5c2d3b90600090a250565b6000848152600460208190526040808320600754600182015492517f3a46b1a80000000000000000000000000000000000000000000000000000000081526001600160a01b038881169582019590955260248101939093529093921690633a46b1a89060440160206040518083038186803b158015613cc157600080fd5b505afa158015613cd5573d6000803e3d6000fd5b505050506040513d601f19601f82011682018060405250810190613cf99190614351565b6001600160a01b038516600090815260068401602052604090205490915060ff166001816002811115613d2e57613d2e615237565b1415613d4e57818360030154613d449190614e4f565b6003840155613d7e565b6002816002811115613d6257613d62615237565b1415613d7e57818360040154613d789190614e4f565b60048401555b8515613d9e57818360030154613d949190614df6565b6003840155613db4565b818360040154613dae9190614df6565b60048401555b85613dc0576002613dc3565b60015b6001600160a01b03861660009081526006850160205260409020805460ff19166001836002811115613df757613df7615237565b0217905550604080518715158152602081018490526001600160a01b0387169189917fb34ee265e3d4f5ec4e8b52d59b2a9be8fceca2f274ebc080d8fba797fea9391f910160405180910390a3838015613e555750613e5587613e6c565b15613e6357613e638761283c565b50505050505050565b6000818152600460205260408120613e8383613716565b15613e915750600092915050565b600381015460058201546002830154613eb592919067ffffffffffffffff16614054565b15613ec35750600192915050565b613ecd81846136cc565b15613edb5750600092915050565b600081600401548260030154613ef19190614df6565b60038301546002840154919250613f1391839067ffffffffffffffff16614054565b613f21575060009392505050565b600382015460058301546002840154613f5192919068010000000000000000900467ffffffffffffffff16614054565b613f5f575060009392505050565b5060019392505050565b6060833b613fdf5760405162461bcd60e51b815260206004820152602660248201527f416464726573733a2064656c65676174652063616c6c20746f206e6f6e2d636f60448201527f6e74726163740000000000000000000000000000000000000000000000000000606482015260840161060f565b600080856001600160a01b031685604051613ffa9190614699565b600060405180830381855af49150503d8060008114614035576040519150601f19603f3d011682016040523d82523d6000602084013e61403a565b606091505b509150915061404a82828661408d565b9695505050505050565b6000826140635750600061370f565b600083614078670de0b6b3a764000087614e30565b6140829190614e0e565b909210949350505050565b6060831561409c57508161370f565b8251156140ac5782518084602001fd5b8160405162461bcd60e51b815260040161060f9190614c61565b6000608082840312156140d857600080fd5b50919050565b6000602082840312156140f057600080fd5b813561370f816157d1565b6000806040838503121561410e57600080fd5b8235614119816157d1565b9150602083013567ffffffffffffffff81111561413557600080fd5b8301601f8101851361414657600080fd5b803561415961415482614dce565b614d9d565b81815286602083850101111561416e57600080fd5b816020840160208301376000602083830101528093505050509250929050565b6000602082840312156141a057600080fd5b815161370f816157e6565b600080604083850312156141be57600080fd5b82356141c9816157e6565b915060208301356141d9816157e6565b809150509250929050565b600080600060a084860312156141f957600080fd5b8335614204816157d1565b92506020840135614214816157d1565b915060a0840185101561422657600080fd5b6040840190509250925092565b60008060006060848603121561424857600080fd5b835167ffffffffffffffff81111561425f57600080fd5b8401601f8101861361427057600080fd5b805161427e61415482614dce565b81815287602083850101111561429357600080fd5b6142a48260208301602086016151a5565b80955050505060208401516142b8816157e6565b60408501519092506142c9816157e6565b809150509250925092565b600080604083850312156142e757600080fd5b823567ffffffffffffffff808211156142ff57600080fd5b61430b868387016140c6565b9350602085013591508082111561432157600080fd5b5061432e858286016140c6565b9150509250929050565b60006020828403121561434a57600080fd5b5035919050565b60006020828403121561436357600080fd5b5051919050565b6000806040838503121561437d57600080fd5b8235915060208301356141d9816157d1565b6000806000604084860312156143a457600080fd5b83359250602084013567ffffffffffffffff808211156143c357600080fd5b818601915086601f8301126143d757600080fd5b8135818111156143e657600080fd5b8760208285010111156143f857600080fd5b6020830194508093505050509250925092565b60006020828403121561441d57600080fd5b813567ffffffffffffffff8116811461370f57600080fd5b60006004821061444757614447615237565b50815260200190565b600061445d838351614581565b6020838101518051908201926000915b808310156144b15784516001600160a01b0381511683528481015185840152604061449d81850182840151614581565b93505050838501945060018301925061446d565b506144cd6144c3826040890151614581565b6060880151614581565b979650505050505050565b60006144e4838361461b565b6001838101805460009182526020808320909490929091905b8181101561453a576001600160a01b038454168352848401548684015261452a604084016002860161461b565b60039490940193925084016144fd565b50506144cd61454c826002890161461b565b6003880161461b565b6000815180845261456d8160208601602086016151a5565b601f01601f19169290920160200192915050565b600081516145938185602086016151a5565b601f01601f19169290920192915050565b600081546145b1816151d1565b8085526020600183811680156145ce57600181146145e257614610565b60ff19851683890152604088019550614610565b866000528260002060005b858110156146085781548a82018601529083019084016145ed565b890184019650505b505050505092915050565b60008154614628816151d1565b6001828116801561464057600181146146525761467f565b60ff198416875260208701945061467f565b8560005260208060002060005b858110156146785781548a82015290840190820161465f565b8901965050505b5050505092915050565b8183823760009101908152919050565b600082516146ab8184602087016151a5565b9190910192915050565b8151815260006020808401516001600160a01b0380825116838601528282015161472361471961470f6147056146fb6146f260408c018751614581565b89870151614581565b6040860151614581565b6060850151614581565b6080840151614581565b60a0830151614581565b60408401518051908601925060009190825b8181101561479057845180518716845288015180519089019085908a8601905b8083101561477f5783516001600160e01b0319168252928b019260019290920191908b0190614755565b50968a019694505050600101614735565b50506147ba6147b06147a6836060890151614581565b60408c0151614450565b60608b0151614435565b9998505050505050505050565b81548152600060206001600160a01b0380600186015416828501526148226148196148106148076147fe6040890160028b0161461b565b60038a0161461b565b6004890161461b565b6005880161461b565b6006870161461b565b61482f816007880161461b565b60088701805460009182528582209350905b81811015614a4057848454168352858301600185015461486a6001870160009081526020902090565b60005b82600782011015614925578154614890858260e01b6001600160e01b0319169052565b6001600160e01b031960c082901b81168c87015260a082901b81166040870152608082901b811660608701526148d760808701828460601b166001600160e01b0319169052565b6148f260a08701828460401b166001600160e01b0319169052565b6001600160e01b0319828d1b8216811660c088015291161660e0850152610100909301926001919091019060080161486d565b9054908281101561494e57614946848360e01b6001600160e01b0319169052565b928901926001015b8281101561496f5760c082901b6001600160e01b0319168452928901926001015b828110156149905760a082901b6001600160e01b0319168452928901926001015b828110156149b157608082901b6001600160e01b0319168452928901926001015b828110156149d257606082901b6001600160e01b0319168452928901926001015b828110156149f357604082901b6001600160e01b0319168452928901926001015b82811015614a1257818a1b6001600160e01b0319168452928901926001015b82811015614a2c576001600160e01b031982168452928901925b505050600294909401939250600101614841565b50506144cd614a5e614a558360098b0161461b565b600a8a016144d8565b600e89015460ff16614435565b60006020808301818452808554808352604092508286019150828160051b870101876000528460002060005b83811015614b08577fffffffffffffffffffffffffffffffffffffffffffffffffffffffffffffffc089840301855260606001600160a01b0383541684526001830154888501528087850152614af2818501600285016145a4565b9588019593505060039190910190600101614a97565b509098975050505050505050565b60006101408083018d1515845260208d15158186015260408d8187015260608d8188015267ffffffffffffffff808e166080890152808d1660a0890152508a60c08801528960e08801528861010088015284610120880152839450875180855261016094508488019550848160051b890101945083890160005b82811015614bfe578987037ffffffffffffffffffffffffffffffffffffffffffffffffffffffffffffffea0018852815180516001600160a01b031688528681015187890152850151858801859052614beb85890182614555565b9887019897505090850190600101614b90565b50505050505080925050509b9a5050505050505050505050565b6020810160038310614c2c57614c2c615237565b91905290565b60208152816020820152818360408301376000818301604090810191909152601f909201601f19160101919050565b60208152600061370f6020830184614555565b60208152600061370f60208301846145a4565b6000808335601e19843603018112614c9e57600080fd5b83018035915067ffffffffffffffff821115614cb957600080fd5b6020019150600581901b3603821315614cd157600080fd5b9250929050565b6000808335601e19843603018112614cef57600080fd5b83018035915067ffffffffffffffff821115614d0a57600080fd5b602001915036819003821315614cd157600080fd5b600082357fffffffffffffffffffffffffffffffffffffffffffffffffffffffffffffffa18336030181126146ab57600080fd5b600082357fffffffffffffffffffffffffffffffffffffffffffffffffffffffffffffffc18336030181126146ab57600080fd5b6000823560be198336030181126146ab57600080fd5b604051601f8201601f1916810167ffffffffffffffff81118282101715614dc657614dc661524d565b604052919050565b600067ffffffffffffffff821115614de857614de861524d565b50601f01601f191660200190565b60008219821115614e0957614e09615221565b500190565b600082614e2b57634e487b7160e01b600052601260045260246000fd5b500490565b6000816000190483118215151615614e4a57614e4a615221565b500290565b600082821015614e6157614e61615221565b500390565b601f821115614e9f57806000526020600020601f840160051c81016020851015614e8d5750805b6136c5601f850160051c830182614ea4565b505050565b5b818110156109305760008155600101614ea5565b68010000000000000000831115614ed257614ed261524d565b805483825580841015614fb7577f55555555555555555555555555555555555555555555555555555555555555556001818311811615614f1457614f14615221565b6003828711821615614f2857614f28615221565b600085815260208120909350878202810190828602015b80821015614fb157848255848483015560028201614f5d81546151d1565b8015614fa657601f80821160018114614f7857888455614fa3565b600084815260209020614f9483850160051c82018a8301614ea4565b50600084815260208120818655555b50505b505090820190614f3f565b50505050505b5060008181526020812083915b85811015614ff557614fdf614fd98487614d1f565b83615600565b6020929092019160039190910190600101614fc4565b505050505050565b680100000000000000008311156150165761501661524d565b8054838255808410156150a7577f7fffffffffffffffffffffffffffffffffffffffffffffffffffffffffffffff600181831181161561505857615058615221565b81861181161561506a5761506a615221565b60008481526020812090925086821b81019084831b015b808210156150a257838255615097838301615263565b600282019150615081565b505050505b5060008181526020812083915b85811015614ff5576150cf6150c98487614d53565b83615709565b60209290920191600291909101906001016150b4565b67ffffffffffffffff8311156150fd576150fd61524d565b6151118361510b83546151d1565b83614e66565b6000601f841160018114615145576000851561512d5750838201355b600019600387901b1c1916600186901b1783556136c5565b600083815260209020601f19861690835b828110156151765786850135825560209485019460019092019101615156565b50868210156151935760001960f88860031b161c19848701351681555b505060018560011b0183555050505050565b60005b838110156151c05781810151838201526020016151a8565b838111156128365750506000910152565b600181811c908216806151e557607f821691505b602082108114156140d857634e487b7160e01b600052602260045260246000fd5b600060001982141561521a5761521a615221565b5060010190565b634e487b7160e01b600052601160045260246000fd5b634e487b7160e01b600052602160045260246000fd5b634e487b7160e01b600052604160045260246000fd5b805460008255801561093057816000526020600020614e9f6007830160031c820182614ea4565b680100000000000000008211156152a3576152a361524d565b805482825580831015614e9f578160005260206000206007840160031c8101601c8560021b1680156152e6576000198083018054828460200360031b1c16815550505b506136c56007840160031c830182614ea4565b8135615304816157d1565b6001600160a01b03811673ffffffffffffffffffffffffffffffffffffffff1983541617825550600180820160208085013560be1986360301811261534857600080fd5b85016153548180614cd8565b67ffffffffffffffff81111561536c5761536c61524d565b6153808161537a87546151d1565b87614e66565b6000601f8211600181146153b4576000831561539c5750838201355b600019600385901b1c1916600184901b178755615409565b600087815260209020601f19841690835b828110156153e25786850135825593880193908a019088016153c5565b50848210156153ff5760001960f88660031b161c19848701351681555b50508783891b0187555b5050505061541982820182614cd8565b9450925061542b8484600288016150e5565b6154386040820182614cd8565b9450925061544a8484600388016150e5565b6154576060820182614cd8565b945092506154698484600488016150e5565b6154766080820182614cd8565b945092506154888484600588016150e5565b61549560a0820182614cd8565b9450925050506154a98282600686016150e5565b50506154b86040830183614c87565b6154c6818360078601614ffd565b50506154d56060830183614cd8565b6128368183600886016150e5565b6154ed8283614cd8565b67ffffffffffffffff8111156155055761550561524d565b6155198161551385546151d1565b85614e66565b6000601f82116001811461554d57600083156155355750838201355b600019600385901b1c1916600184901b1785556155a7565b600085815260209020601f19841690835b8281101561557e578685013582556020948501946001909201910161555e565b508482101561559b5760001960f88660031b161c19848701351681555b505060018360011b0185555b505050506155b86020830183614c87565b6155c6818360018601614eb9565b50506155d56040830183614cd8565b6155e38183600286016150e5565b50506155f26060830183614cd8565b6128368183600386016150e5565b813561560b816157d1565b815473ffffffffffffffffffffffffffffffffffffffff19166001600160a01b038216178255506001602080840135828401556002830161564f6040860186614cd8565b67ffffffffffffffff8111156156675761566761524d565b6156758161551385546151d1565b6000601f8211600181146156a957600083156156915750838201355b600019600385901b1c1916600184901b1785556156fe565b600085815260209020601f19841690835b828110156156d757868501358255938801939089019088016156ba565b50848210156156f45760001960f88660031b161c19848701351681555b50508683881b0185555b505050505050505050565b8135615714816157d1565b815473ffffffffffffffffffffffffffffffffffffffff19166001600160a01b038216178255506001808201602061574e81860186614c87565b615758818561528a565b60009384528284209380805b838110156157c55784356001600160e01b031981168114615783578384fd5b875463ffffffff600385901b90811b801990921660e09390931c901b1617875593850193600490910190601c8211156157be57958701958291505b8701615764565b50505050505050505050565b6001600160a01b038116811461071457600080fd5b801515811461071457600080fdfe416464726573733a206c6f772d6c6576656c2064656c65676174652063616c6c206661696c6564a2646970667358221220d61889938cdb101a1067dcd2ae9692ae2b976da8fe95271894893661a9ff740064736f6c63430008060033",
  "linkReferences": {},
  "deployedLinkReferences": {}
}