{
  "_format": "hh-sol-artifact-1",
  "contractName": "Vault",
  "sourceName": "contracts/src/vault/Vault.sol",
  "abi": [
    {
      "inputs": [],
      "stateMutability": "nonpayable",
      "type": "constructor"
    },
    {
      "anonymous": false,
      "inputs": [
        {
          "indexed": false,
          "internalType": "address",
          "name": "previousAdmin",
          "type": "address"
        },
        {
          "indexed": false,
          "internalType": "address",
          "name": "newAdmin",
          "type": "address"
        }
      ],
      "name": "AdminChanged",
      "type": "event"
    },
    {
      "anonymous": false,
      "inputs": [
        {
          "indexed": true,
          "internalType": "address",
          "name": "beacon",
          "type": "address"
        }
      ],
      "name": "BeaconUpgraded",
      "type": "event"
    },
    {
      "anonymous": false,
      "inputs": [
        {
          "indexed": true,
          "internalType": "address",
          "name": "implementation",
          "type": "address"
        }
      ],
      "name": "Upgraded",
      "type": "event"
    },
    {
      "anonymous": false,
      "inputs": [
        {
          "indexed": true,
          "internalType": "address",
          "name": "token",
          "type": "address"
        },
        {
          "indexed": true,
          "internalType": "address",
          "name": "sender",
          "type": "address"
        },
        {
          "indexed": false,
          "internalType": "uint256",
          "name": "amount",
          "type": "uint256"
        },
        {
          "indexed": false,
          "internalType": "string",
          "name": "reason",
          "type": "string"
        }
      ],
      "name": "VaultDeposit",
      "type": "event"
    },
    {
      "anonymous": false,
      "inputs": [
        {
          "indexed": true,
          "internalType": "address",
          "name": "sender",
          "type": "address"
        },
        {
          "indexed": false,
          "internalType": "uint256",
          "name": "amount",
          "type": "uint256"
        }
      ],
      "name": "VaultETHDeposit",
      "type": "event"
    },
    {
      "anonymous": false,
      "inputs": [
        {
          "indexed": true,
          "internalType": "address",
          "name": "token",
          "type": "address"
        },
        {
          "indexed": true,
          "internalType": "address",
          "name": "to",
          "type": "address"
        },
        {
          "indexed": false,
          "internalType": "uint256",
          "name": "amount",
          "type": "uint256"
        },
        {
          "indexed": false,
          "internalType": "string",
          "name": "reason",
          "type": "string"
        }
      ],
      "name": "VaultTransfer",
      "type": "event"
    },
    {
      "inputs": [],
      "name": "TRANSFER_ROLE",
      "outputs": [
        {
          "internalType": "bytes32",
          "name": "",
          "type": "bytes32"
        }
      ],
      "stateMutability": "view",
      "type": "function"
    },
    {
      "inputs": [],
      "name": "UPGRADE_ROLE",
      "outputs": [
        {
          "internalType": "bytes32",
          "name": "",
          "type": "bytes32"
        }
      ],
      "stateMutability": "view",
      "type": "function"
    },
    {
      "inputs": [
        {
          "internalType": "address",
          "name": "_token",
          "type": "address"
        }
      ],
      "name": "balance",
      "outputs": [
        {
          "internalType": "uint256",
          "name": "",
          "type": "uint256"
        }
      ],
      "stateMutability": "view",
      "type": "function"
    },
    {
      "inputs": [
        {
          "internalType": "address",
          "name": "_token",
          "type": "address"
        },
        {
          "internalType": "uint256",
          "name": "_value",
          "type": "uint256"
        },
        {
          "internalType": "string",
          "name": "_description",
          "type": "string"
        }
      ],
      "name": "deposit",
      "outputs": [],
      "stateMutability": "payable",
      "type": "function"
    },
    {
      "inputs": [
        {
          "internalType": "contract DAO",
          "name": "_dao",
          "type": "address"
        }
      ],
      "name": "initialize",
      "outputs": [],
      "stateMutability": "nonpayable",
      "type": "function"
    },
    {
      "inputs": [
        {
          "internalType": "address",
          "name": "_token",
          "type": "address"
        },
        {
          "internalType": "address",
          "name": "_to",
          "type": "address"
        },
        {
          "internalType": "uint256",
          "name": "_value",
          "type": "uint256"
        },
        {
          "internalType": "string",
          "name": "_description",
          "type": "string"
        }
      ],
      "name": "transfer",
      "outputs": [],
      "stateMutability": "nonpayable",
      "type": "function"
    },
    {
      "inputs": [
        {
          "internalType": "address",
          "name": "newImplementation",
          "type": "address"
        }
      ],
      "name": "upgradeTo",
      "outputs": [],
      "stateMutability": "nonpayable",
      "type": "function"
    },
    {
      "inputs": [
        {
          "internalType": "address",
          "name": "newImplementation",
          "type": "address"
        },
        {
          "internalType": "bytes",
          "name": "data",
          "type": "bytes"
        }
      ],
      "name": "upgradeToAndCall",
      "outputs": [],
      "stateMutability": "payable",
      "type": "function"
    },
    {
      "stateMutability": "payable",
      "type": "receive"
    }
  ],
  "bytecode": "0x60a06040523060601b60805234801561001757600080fd5b50600054600160a81b900460ff168061003a5750600054600160a01b900460ff16155b6100a15760405162461bcd60e51b815260206004820152602e60248201527f496e697469616c697a61626c653a20636f6e747261637420697320616c72656160448201526d191e481a5b9a5d1a585b1a5e995960921b606482015260840160405180910390fd5b600054600160a81b900460ff161580156100cb576000805461ffff60a01b191661010160a01b1790555b80156100df576000805460ff60a81b191690555b5060805160601c6116f8610113600039600081816101ed0152818161028801528181610390015261042601526116f86000f3fe60806040526004361061007f5760003560e01c8063bfe07da61161004e578063bfe07da61461016f578063c4d66de814610182578063d57b2826146101a2578063e3d670d7146101c257600080fd5b8063206b60f9146100c05780633659cfe6146101065780634f1ef28614610128578063b908afa81461013b57600080fd5b366100bb5760405134815233907f05e3a6f227520ac02b0bc672aba24f432d28e54438fdd10676ed47a34ac619e39060200160405180910390a2005b600080fd5b3480156100cc57600080fd5b506100f47f8502233096d909befbda0999bb8ea2f3a6be3c138b9fbf003752a4c8bce86f6c81565b60405190815260200160405180910390f35b34801561011257600080fd5b506101266101213660046113bb565b6101e2565b005b61012661013636600461144b565b610385565b34801561014757600080fd5b506100f47f88aa719609f728b0c5e7fb8dd3608d5c25d497efbb3b9dd64e9251ebba10150881565b61012661017d36600461150f565b610514565b34801561018e57600080fd5b5061012661019d3660046113bb565b610526565b3480156101ae57600080fd5b506101266101bd3660046113d8565b6106a9565b3480156101ce57600080fd5b506100f46101dd3660046113bb565b610936565b306001600160a01b037f00000000000000000000000000000000000000000000000000000000000000001614156102865760405162461bcd60e51b815260206004820152602c60248201527f46756e6374696f6e206d7573742062652063616c6c6564207468726f7567682060448201527f64656c656761746563616c6c000000000000000000000000000000000000000060648201526084015b60405180910390fd5b7f00000000000000000000000000000000000000000000000000000000000000006001600160a01b03166102e17f360894a13ba1a3210667c828492db98dca3e2076cc3735a920a3ca505d382bbc546001600160a01b031690565b6001600160a01b03161461035d5760405162461bcd60e51b815260206004820152602c60248201527f46756e6374696f6e206d7573742062652063616c6c6564207468726f7567682060448201527f6163746976652070726f78790000000000000000000000000000000000000000606482015260840161027d565b610366816109e3565b6040805160008082526020820190925261038291839190610af2565b50565b306001600160a01b037f00000000000000000000000000000000000000000000000000000000000000001614156104245760405162461bcd60e51b815260206004820152602c60248201527f46756e6374696f6e206d7573742062652063616c6c6564207468726f7567682060448201527f64656c656761746563616c6c0000000000000000000000000000000000000000606482015260840161027d565b7f00000000000000000000000000000000000000000000000000000000000000006001600160a01b031661047f7f360894a13ba1a3210667c828492db98dca3e2076cc3735a920a3ca505d382bbc546001600160a01b031690565b6001600160a01b0316146104fb5760405162461bcd60e51b815260206004820152602c60248201527f46756e6374696f6e206d7573742062652063616c6c6564207468726f7567682060448201527f6163746976652070726f78790000000000000000000000000000000000000000606482015260840161027d565b610504826109e3565b61051082826001610af2565b5050565b61052084848484610cb6565b50505050565b6000547501000000000000000000000000000000000000000000900460ff168061056b575060005474010000000000000000000000000000000000000000900460ff16155b6105dd5760405162461bcd60e51b815260206004820152602e60248201527f496e697469616c697a61626c653a20636f6e747261637420697320616c72656160448201527f647920696e697469616c697a6564000000000000000000000000000000000000606482015260840161027d565b6000547501000000000000000000000000000000000000000000900460ff1615801561064457600080547fffffffffffffffffffff0000ffffffffffffffffffffffffffffffffffffffff1675010100000000000000000000000000000000000000001790555b600080547fffffffffffffffffffffffff0000000000000000000000000000000000000000166001600160a01b038416179055801561051057600080547fffffffffffffffffffff00ffffffffffffffffffffffffffffffffffffffffff1690555050565b6000546040517f6d6712d80000000000000000000000000000000000000000000000000000000081523060048201523360248201527f8502233096d909befbda0999bb8ea2f3a6be3c138b9fbf003752a4c8bce86f6c60448201819052916001600160a01b031690636d6712d890606401602060405180830381600087803b15801561073457600080fd5b505af1158015610748573d6000803e3d6000fd5b505050506040513d601f19601f8201168201806040525081019061076c919061156b565b6107b85760405162461bcd60e51b815260206004820152600b60248201527f617574683a20636865636b000000000000000000000000000000000000000000604482015260640161027d565b60408051808201909152601981527f5641554c545f5452414e534645525f56414c55455f5a45524f0000000000000060208201528461080a5760405162461bcd60e51b815260040161027d91906115c2565b506001600160a01b0386166108cb576000856001600160a01b03168560405160006040518083038185875af1925050503d8060008114610866576040519150601f19603f3d011682016040523d82523d6000602084013e61086b565b606091505b50509050806040518060400160405280601381526020017f5641554c545f53454e445f524556455254454400000000000000000000000000815250906108c45760405162461bcd60e51b815260040161027d91906115c2565b50506108df565b6108df6001600160a01b0387168686610ddb565b846001600160a01b0316866001600160a01b03167f17d2993561f784354739cb5cc59cf0c78b661010ddd8d319a416bc7d08b8f205868686604051610926939291906115f5565b60405180910390a3505050505050565b60006001600160a01b03821661094d575047919050565b6040517f70a082310000000000000000000000000000000000000000000000000000000081523060048201526001600160a01b038316906370a082319060240160206040518083038186803b1580156109a557600080fd5b505afa1580156109b9573d6000803e3d6000fd5b505050506040513d601f19601f820116820180604052508101906109dd919061158d565b92915050565b6000546040517f6d6712d80000000000000000000000000000000000000000000000000000000081523060048201523360248201527f88aa719609f728b0c5e7fb8dd3608d5c25d497efbb3b9dd64e9251ebba10150860448201819052916001600160a01b031690636d6712d890606401602060405180830381600087803b158015610a6e57600080fd5b505af1158015610a82573d6000803e3d6000fd5b505050506040513d601f19601f82011682018060405250810190610aa6919061156b565b6105105760405162461bcd60e51b815260206004820152600b60248201527f617574683a20636865636b000000000000000000000000000000000000000000604482015260640161027d565b6000610b257f360894a13ba1a3210667c828492db98dca3e2076cc3735a920a3ca505d382bbc546001600160a01b031690565b9050610b3084610e89565b600083511180610b3d5750815b15610b4e57610b4c8484610f56565b505b7f4910fdfa16fed3260ed0e7147f7cc6da11a60208b5b9406d12a635614ffd9143805460ff16610caf57805460ff191660011781556040516001600160a01b0383166024820152610bfb90869060440160408051601f198184030181529190526020810180517bffffffffffffffffffffffffffffffffffffffffffffffffffffffff167f3659cfe600000000000000000000000000000000000000000000000000000000179052610f56565b50805460ff191681557f360894a13ba1a3210667c828492db98dca3e2076cc3735a920a3ca505d382bbc546001600160a01b03838116911614610ca65760405162461bcd60e51b815260206004820152602f60248201527f45524331393637557067726164653a207570677261646520627265616b73206660448201527f7572746865722075706772616465730000000000000000000000000000000000606482015260840161027d565b610caf85610f82565b5050505050565b60408051808201909152601881527f5641554c545f4445504f5349545f56414c55455f5a45524f0000000000000000602082015283610d085760405162461bcd60e51b815260040161027d91906115c2565b506001600160a01b038416610d715760408051808201909152601481527f5641554c545f56414c55455f4d49534d415443480000000000000000000000006020820152348414610d6b5760405162461bcd60e51b815260040161027d91906115c2565b50610d86565b610d866001600160a01b038516333086610fc2565b336001600160a01b0316846001600160a01b03167fe8774b48760b6f344aa41c1034a142c87daf47f915174d6621495d20fd2b7e9e858585604051610dcd939291906115f5565b60405180910390a350505050565b6040516001600160a01b038316602482015260448101829052610e849084907fa9059cbb00000000000000000000000000000000000000000000000000000000906064015b60408051601f198184030181529190526020810180517bffffffffffffffffffffffffffffffffffffffffffffffffffffffff167fffffffff0000000000000000000000000000000000000000000000000000000090931692909217909152611013565b505050565b803b610efd5760405162461bcd60e51b815260206004820152602d60248201527f455243313936373a206e657720696d706c656d656e746174696f6e206973206e60448201527f6f74206120636f6e747261637400000000000000000000000000000000000000606482015260840161027d565b7f360894a13ba1a3210667c828492db98dca3e2076cc3735a920a3ca505d382bbc80547fffffffffffffffffffffffff0000000000000000000000000000000000000000166001600160a01b0392909216919091179055565b6060610f7b838360405180606001604052806027815260200161169c602791396110f8565b9392505050565b610f8b81610e89565b6040516001600160a01b038216907fbc7cd75a20ee27fd9adebab32041f755214dbc6bffa90cc0225b39da2e5c2d3b90600090a250565b6040516001600160a01b03808516602483015283166044820152606481018290526105209085907f23b872dd0000000000000000000000000000000000000000000000000000000090608401610e20565b6000611068826040518060400160405280602081526020017f5361666545524332303a206c6f772d6c6576656c2063616c6c206661696c6564815250856001600160a01b03166111e39092919063ffffffff16565b805190915015610e845780806020019051810190611086919061156b565b610e845760405162461bcd60e51b815260206004820152602a60248201527f5361666545524332303a204552433230206f7065726174696f6e20646964206e60448201527f6f74207375636365656400000000000000000000000000000000000000000000606482015260840161027d565b6060833b61116e5760405162461bcd60e51b815260206004820152602660248201527f416464726573733a2064656c65676174652063616c6c20746f206e6f6e2d636f60448201527f6e74726163740000000000000000000000000000000000000000000000000000606482015260840161027d565b600080856001600160a01b03168560405161118991906115a6565b600060405180830381855af49150503d80600081146111c4576040519150601f19603f3d011682016040523d82523d6000602084013e6111c9565b606091505b50915091506111d98282866111fa565b9695505050505050565b60606111f28484600085611233565b949350505050565b60608315611209575081610f7b565b8251156112195782518084602001fd5b8160405162461bcd60e51b815260040161027d91906115c2565b6060824710156112ab5760405162461bcd60e51b815260206004820152602660248201527f416464726573733a20696e73756666696369656e742062616c616e636520666f60448201527f722063616c6c0000000000000000000000000000000000000000000000000000606482015260840161027d565b843b6112f95760405162461bcd60e51b815260206004820152601d60248201527f416464726573733a2063616c6c20746f206e6f6e2d636f6e7472616374000000604482015260640161027d565b600080866001600160a01b0316858760405161131591906115a6565b60006040518083038185875af1925050503d8060008114611352576040519150601f19603f3d011682016040523d82523d6000602084013e611357565b606091505b50915091506113678282866111fa565b979650505050505050565b60008083601f84011261138457600080fd5b50813567ffffffffffffffff81111561139c57600080fd5b6020830191508360208285010111156113b457600080fd5b9250929050565b6000602082840312156113cd57600080fd5b8135610f7b81611686565b6000806000806000608086880312156113f057600080fd5b85356113fb81611686565b9450602086013561140b81611686565b935060408601359250606086013567ffffffffffffffff81111561142e57600080fd5b61143a88828901611372565b969995985093965092949392505050565b6000806040838503121561145e57600080fd5b823561146981611686565b9150602083013567ffffffffffffffff8082111561148657600080fd5b818501915085601f83011261149a57600080fd5b8135818111156114ac576114ac611657565b604051601f8201601f19908116603f011681019083821181831017156114d4576114d4611657565b816040528281528860208487010111156114ed57600080fd5b8260208601602083013760006020848301015280955050505050509250929050565b6000806000806060858703121561152557600080fd5b843561153081611686565b935060208501359250604085013567ffffffffffffffff81111561155357600080fd5b61155f87828801611372565b95989497509550505050565b60006020828403121561157d57600080fd5b81518015158114610f7b57600080fd5b60006020828403121561159f57600080fd5b5051919050565b600082516115b881846020870161162b565b9190910192915050565b60208152600082518060208401526115e181604085016020870161162b565b601f01601f19169190910160400192915050565b83815260406020820152816040820152818360608301376000818301606090810191909152601f909201601f1916010192915050565b60005b8381101561164657818101518382015260200161162e565b838111156105205750506000910152565b7f4e487b7100000000000000000000000000000000000000000000000000000000600052604160045260246000fd5b6001600160a01b038116811461038257600080fdfe416464726573733a206c6f772d6c6576656c2064656c65676174652063616c6c206661696c6564a2646970667358221220e8d17e7c9db0c7747502b01ef3d988d35f7249c621dd55c8b29ed938957e555064736f6c63430008060033",
  "linkReferences": {},
  "deployedLinkReferences": {}
}